:020000040800F2
:1000000000280020A53C00089D2300089F2300082D
:10001000A1230008A3230008A52300080000000076
:10002000000000000000000000000000A7230008FE
:10003000A923000800000000AB230008AD2300083E
:10004000ED3C0008ED3C0008ED3C0008ED3C0008EC
:10005000ED3C0008ED3C0008ED3C0008ED3C0008DC
:10006000ED3C0008ED3C0008ED3C0008ED3C0008CC
:10007000ED3C0008ED3C0008ED3C0008ED3C0008BC
:10008000ED3C0008ED3C0008ED3C0008ED3C0008AC
:10009000ED3C0008ED3C0008ED3C0008ED3C00089C
:1000A000ED3C0008ED3C0008ED3C0008ED3C00088C
:1000B000ED3C0008ED3C000800000000ED3C0008AD
:1000C000ED3C00080000000000000000ED3C0008CE
:1000D00000000000ED3C0008ED3C000800000000BE
:1000E000ED3C0008ED3C0008ED3C0008000000007D
:1000F0000000000000000000000000000000000000
:0C01000000000000000000005FF808F1A3
:10010C000348044B834202D0034B03B1184770479A
:10011C007000002070000020000000000548064917
:10012C000B1AD90F01EBA301491002D0034B03B1F9
:10013C00184770477000002070000020000000007D
:10014C0010B5064C237843B9FFF7DAFF044B13B113
:10015C000448AFF300800123237010BD7000002011
:10016C0000000000F03C000808B5044B1BB104492A
:10017C000448AFF30080BDE80840CFE70000000062
:10018C0074000020F03C0008014B1868704700BF59
:10019C000000002070B50D4E0D4D761BB61006D02C
:1001AC00002455F8043B01349847A642F9D1094E76
:1001BC00094D03F097FD761BB61006D0002455F8B8
:1001CC00043B01349847A642F9D170BD843E000827
:1001DC00843E0008883E0008843E0008830730B542
:1001EC0048D0541E002A3FD00346CAB201E0013C5D
:1001FC003AD303F8012B9D07F9D1032C2DD9CDB29D
:10020C0045EA05250F2C45EA054536D9A4F110021F
:10021C0022F00F0C03F1200EE6444FEA121C03F1FE
:10022C00100242E9045542E9025510327245F8D1E8
:10023C000CF1010214F00C0F03EB021204F00F0C82
:10024C0013D0ACF1040323F003030433134442F83A
:10025C00045B9342FBD10CF003042CB1CAB21C44D6
:10026C0003F8012B9C42FBD130BD64461346002C95
:10027C00F4D1F9E703461446BFE71A46A446E0E773
:10028C000EB410B5044683B008B183695BB106ABFC
:10029C002046059AA168019300F04AFD03B0BDE821
:1002AC00104003B0704700F055FBF0E70FB410B5E9
:1002BC000A4B82B01C680CB1A3695BB105AB20463C
:1002CC00049AA168019300F033FD02B0BDE8104020
:1002DC0004B07047204600F03DFBEFE70000002023
:1002EC0070B506460D46002830D0836963B3846828
:1002FC002C4B9C4234D02C4B9C423CD02B4B9C42E4
:10030C0008BFF468A3891B072ED5236963B329782A
:10031C0039B932E023685A1C2260197015F8011F94
:10032C0059B3A368013B002BA360F3DAA269934293
:10033C0001DB0A29EED12246304600F041F80130AB
:10034C00ECD14FF0FF3070BD00F004FBB369B46822
:10035C00002BCDD1304600F0FDFA124B9C42CAD195
:10036C007468A3891B07D0D42146304600F08AF864
:10037C000028CCD0E5E7B468C4E7A368013B002BA8
:10038C00A36008DA22460A21304600F019F8013041
:10039C00D7D00A2070BD0A2223681046591C216050
:1003AC001A7070BD4C3D00082C3D00080C3D000837
:1003BC00024B01461868FFF793BF00BF00000020F6
:1003CC00F8B506460D46144608B1836943B3254B70
:1003DC009C422AD0244B9C4229D0244B9C4208BFDF
:1003EC00F468A269A389A2601A0722D5236903B312
:1003FC0022686169D31AEDB299422F4629DD013387
:10040C00A1680139A160511C2160157062699A4282
:10041C0016D0A389DB0701D50A2D11D03846F8BDBB
:10042C0000F098FA0F4B9C42D4D17468D9E7B468A9
:10043C00D7E72146304600F025F838B92369D7E7CD
:10044C002146304600F024F90028E7D04FF0FF3762
:10045C00E4E72146304600F01BF90028F6D10123D1
:10046C002268CDE74C3D00082C3D00080C3D0008EF
:10047C0003460A46024908681946FFF7A1BF00BFA8
:10048C00000000203C4B70B51D6806460C460DB1B3
:10049C00AB69E3B1394B9C421FD0394B9C424DD0D8
:1004AC00384B9C4208BFEC68B4F90C3018079AB270
:1004BC0019D5216911B312F001002FD00025606904
:1004CC00A5604042A06100292ED0002070BD2846B6
:1004DC0000F040FA294B9C42DFD16C68B4F90C3027
:1004EC0018079AB2E5D4D1063ED5520728D4216913
:1004FC0043F00803A3819AB20029DCD102F42070E6
:10050C00B0F5007FD7D02146304600F087FAB4F919
:10051C000C3021699AB212F00100CFD1950758BF67
:10052C006069A0600029D0D1120658BF0846CDD50D
:10053C0043F040034FF0FF30A38170BDAC68B3E7CC
:10054C00616B51B104F14402914204D0304600F089
:10055C00F3FAB4F90C30002262630022216923F013
:10056C002403C4E90012C3E7092243F040033260BC
:10057C004FF0FF30A38170BD000000204C3D0008FF
:10058C002C3D00080C3D0008F8B58B890C4619076A
:10059C0007463BD46268002A55DDE66A002E50D02F
:1005AC0000223D683A6013F4805250D10123384642
:1005BC00216AB047421C5CD0A389E66A5B0705D56B
:1005CC006368C01A636B0BB1236CC01A0246216AB4
:1005DC0000233846B047411C3BD13B68002B38D038
:1005EC001D2B01D0162B4BD100232269C4E900230B
:1005FC00616B3D6029B304F14403994202D0384643
:10060C0000F09AFA002318466363F8BD2669C6B158
:10061C009A0718BF0023256808BF63692660AD1BC5
:10062C00A3600CE02B463246D4F828C03846216A29
:10063C00E047B0F1000CA5EB0C05664412DD002D73
:10064C00F0DC0020F8BD226C002AA6DCF9E7606D16
:10065C00B4E70022236962602360A389DB04C7D559
:10066C006065C5E7A3894FF0FF3043F04003A381D9
:10067C00F8BD3B68002B9FD01D2B06D0162B04D049
:10068C00A38943F04003A381F8BD00203D60F8BD71
:10069C0038B50B69BBB10C46054608B18369B3B1DB
:1006AC000D4B9C4211D00D4B9C4213D00C4B9C42D9
:1006BC0008BFEC68B4F90C302BB121462846BDE8D4
:1006CC003840FFF761BF002038BD6C68F2E700F0DE
:1006DC0041F9E5E7AC68EDE74C3D00082C3D00081E
:1006EC000C3D000838B540B303690446E3B1174B21
:1006FC001D680DB1AB69CBB1154B9C420FD0154B9E
:10070C009C4221D0144B9C4208BFEC68B4F90C30CD
:10071C0053B121462846BDE83840FFF735BF6C6819
:10072C00B4F90C30002BF4D1002038BD284600F071
:10073C0011F9074B9C42E2D1F1E7084B08491868C4
:10074C00BDE8384000F046B9AC68DFE70000002097
:10075C004C3D00082C3D00080C3D0008083D0008ED
:10076C009D06000800207047014900F033B900BF16
:10077C009D06000800207047682270B54D1E02FBD4
:10078C0005F50E4605F1740100F03CFA044640B143
:10079C0000210C30C4E9016005F168022160FFF70B
:1007AC001DFD204670BD00BF274B2DE9F0411E6892
:1007BC000746B36953B34FF004084836D6E9013401
:1007CC00013B04D51EE05A1C04F168041AD0B4F99C
:1007DC000C50013B002DF6D11C4B08222946C4E9D4
:1007EC000055C4E90253C4E904556566A56104F1DA
:1007FC005C00FFF7F3FCC4E90D55C4E91255204623
:10080C00BDE8F08135682DB12E46D7E7304600F0B3
:10081C001FF8D0E74FF4D671384600F0F3F90446D0
:10082C0068B1056029460546C0F804800C304FF4C9
:10083C00D072A060FFF7D2FC34602E46BEE70C23CA
:10084C0030603B60DBE700BF083D00080100FFFFA4
:10085C000023334A2DE9F0471268C0E91233904265
:10086C00036508BF01232F4908BF836181620546D8
:10087C00FFF79AFF034628466B60FFF795FFA860C9
:10088C0028460024FFF790FF04236E68DFF898A039
:10089C00DFF89890DFF89880264FE8600822F36024
:1008AC002146C6E90044C6E904447466B460B461E8
:1008BC0006F15C00FFF792FC1F4BC6E9086AC6E91B
:1008CC000A983763AE680822F3602146C6E90044F3
:1008DC00C6E904447466B460B46106F15C00FFF7C9
:1008EC007DFC164BC6E9086AC6E90A983763EE68C0
:1008FC002146F3600822C6E90044C6E90444746644
:10090C00B460B46106F15C00FFF768FC0123C6E932
:10091C00086AC6E90B87C6F82890AB61BDE8F0877A
:10092C00083D000875070008E51300080D140008C1
:10093C004D1400086D14000809000100120002009B
:10094C00024B0349186800F045B800BF083D000889
:10095C009D060008836903B97AE77047704700BFAA
:10096C00704700BF704700BF704700BF024B034980
:10097C00186800F00FB800BF0000002071070008D5
:10098C00024B0349186800F005B800BF00000020B6
:10099C00810700082DE9F0410026884600F1480740
:1009AC00D7E90154013D0ED4A389013D012B06D991
:1009BC00B4F90E30013302D02046C04706436B1CFD
:1009CC0004F16804F0D13F68002FE9D13046BDE84E
:1009DC00F08100BF2DE9F8434FF000090746884627
:1009EC0000F14806D6E90154013D10D4A389013D1C
:1009FC00012B08D9B4F90E30013304D02146384606
:100A0C00C04749EA00096B1C04F16804EED1366852
:100A1C00002EE7D14846BDE8F88300BFF0B58B89BE
:100A2C000C46990797B007D5012204F14703C4E996
:100A3C000432236017B0F0BDB4F90E10054600293E
:100A4C002DDB6A4600F038FD002827DB019E4FF4B1
:100A5C00806706F47046A6F50056B6FA86F6394657
:100A6C002846760900F0CEF830B3A3891A4A43F031
:100A7C008003AA62C4E90407A3812060002ED9D0A8
:100A8C002846B4F90E1000F0A3FE0028D2D0A3899A
:100A9C0023F0030343F00103A381CBE7A38913F0F5
:100AAC00800F14BF40274FF4806728463946002634
:100ABC0000F0A8F80028D8D1B4F90C309A05B9D4B4
:100ACC00012123F0030304F1470243F00203C4E9BC
:100ADC000421A3812260ADE77507000870B50C46B0
:100AEC00B1F90E10164600291D4696B013DB6A4666
:100AFC0000F0E2FC00280EDB01994FF4806301F456
:100B0C007041A1F50051B1FA81F100204909296029
:100B1C00336016B070BD0022B4F90C302A601B068D
:100B2C0004D540230020336016B070BD4FF48063B1
:100B3C000020336016B070BD002952D038B551F882
:100B4C00043C0C1F002BB8BFE418054600F0A2FFB4
:100B5C002B4A1368002B45D0A3420CD9216860188E
:100B6C00834228D0636028461460BDE8384000F00A
:100B7C0093BFA3420FD81A465B68002BF9D11168BA
:100B8C00501884421DD034D3636054602846BDE8AD
:100B9C00384000F081BF11685018A04215D028D8F9
:100BAC00216860188342EFD118685B680144C4E97E
:100BBC0000135460EAE718685B680144C4E9001349
:100BCC00D1E7236819441160E0E72068014450180C
:100BDC0083421160DAD1D3E900030144C2E9001366
:100BEC00D4E77047284663601460BDE8384000F0D5
:100BFC0053BF0C2328462B60BDE8384000F04CBF97
:100C0C008C000020F8B5CD1C25F0030508350C2D03
:100C1C0038BF0C25002D064623DBA94221D8264FD0
:100C2C0000F038FF3A6822B3144603E063682246AA
:100C3C00FBB11C4623685B1BF8D40B2B15D86368DF
:100C4C0094420CBF3B605360304600F025FF04F12A
:100C5C000B00231D20F00700C21A01D01B1AA35051
:100C6C00F8BD0C2300203360F8BD23601C442560C4
:100C7C00EAE77968D1B12946304600F09BFB431C6A
:100C8C0001460CD0C41C24F00304A04205D030460D
:100C9C00611A00F08FFB013001D02560D4E70C23E2
:100CAC003046336000F0F8FE0020F8BD304600F00E
:100CBC0081FB7860DFE700BF8C0000209368013B6C
:100CCC00002B936005DAD2F818C0634507DB0A29BC
:100CDC0005D01368581C1060084619707047FFF750
:100CEC006FBB00BF9BB1F8B5134406460F46541EAC
:100CFC005D1E01E0AC4208D03A46304614F8011FA4
:100D0C00FFF7DCFF431CF5D1F8BD0020F8BD002037
:100D1C00704700BF936810B5144613B9184653605A
:100D2C0010BD00F0DDFB0023C4E9013310BD00BF92
:100D3C002DE9F04F0E4692461C4607469FB018B15F
:100D4C008369002B00F0A880954B9E4200F0AA808E
:100D5C00944B9E4200F0B580934B9E4208BFFE68B8
:100D6C00B389180740F1A3803369002B00F09F80F2
:100D7C00002320220B9330239AF8001005940125B0
:100D8C008A4C8DF831208DF8323000297DD0D14637
:100D9C000B4604E019F8013F002B00F09480252B42
:100DAC00F8D1B9EB0A0B40F0918099F80030002B88
:100DBC006BD000234FF0FF3209F10109CDE9072375
:100DCC00069309938DF85B301C9304E0001B05FA25
:100DDC0000F018430690CA460522204619F8011B5C
:100DEC0000F01EFD069B0028F0D1D90644BF20223E
:100DFC008DF85B201A0748BF2B229AF8001048BFC9
:100E0C008DF85B202A2972D1059A116804320029C9
:100E1C000592C0F2A08009919AF801100AF1010A1A
:100E2C002E2976D0DFF888910322484600F0F8FC92
:100E3C0048B14022069BA0EB090002FA00F00343E4
:100E4C000AF1010A06931AF8011B062259488DF87B
:100E5C00301000F0E5FC002800F08380564B002B8E
:100E6C006CD005A9009132463846544B06A9AFF315
:100E7C0000800390039B013307D00B9B039A9AF8D5
:100E8C00001013440B93002981D1B3895B0615D450
:100E9C000B981FB0BDE8F08FFFF75CFD404B9E42F6
:100EAC007FF456AF7E68B38918073FF55DAF3146C6
:100EBC003846FFF7E7FA00283FF45AAF4FF0FF30FF
:100ECC00E7E7BE684CE7B9EB0A0BDED0D046CAF1B7
:100EDC00010A03E0934538D918F8011F3246384609
:100EEC00FFF7ECFE01300AEB0802F3D1CDE7A1F1DC
:100EFC003002092A94D8099B1AF8011F03EB8303CB
:100F0C0002EB4303A1F13002092AF5D92E290993EA
:100F1C0088D19AF801102A292DD1059B0AF10200DB
:100F2C001A680433002A0593B8BF4FF0FF339AF8C0
:100F3C00021007928246B8BF079373E7059B0733ED
:100F4C0023F007030833059397E70B9A99F80030C1
:100F5C005A440B922BE7494243F002030991069342
:100F6C005AE705A9009132463846144B06A900F001
:100F7C00CBF803907EE70023A1F13002092A0AF195
:100F8C00010A07933FF64EAF1AF8011F03EB8303D8
:100F9C0002EB4303A1F13002092AF5D9079341E78B
:100FAC004C3D00082C3D00080C3D0008483E000854
:100FBC00503E0008543E000800000000F10C0008F0
:100FCC008C4600B586461346034A714610685DF898
:100FDC0004EB6246FFF7ACBE000000202DE9F047A1
:100FEC0091461E460A698B680C469A42B8BF1A464F
:100FFC00C9F8002091F843300546DDF8208013B184
:10100C000132C9F80020226891065DD5D9F800306C
:10101C000233C9F80030226812F0060F11461ED1B7
:10102C00E168CB1A002BD8BF114618DD002704F15C
:10103C00190A06E0D9F80030E268A2EB030CBC45B3
:10104C000CDD0123524631462846C047013007F1DA
:10105C000107EFD14FF0FF30BDE8F087216894F81D
:10106C004330003B18BF01238A060AD53021E21811
:10107C0082F8431094F845105A1C2244023382F82B
:10108C0043103146284604F14302C0470130E1D0F9
:10109C00236803F00603042B1DD0A3682269934236
:1010AC0025DD00279B1A1F4404F11A09002401E0D6
:1010BC00BC421CDA01234A4631462846C04701305F
:1010CC0004F10104F4D1C5E712F0060F12D0003B75
:1010DC0018BF0123D5E7D9F80030E1682269C91A95
:1010EC00A36821EAE1779342DCDC0029DCDC0020F8
:1010FC00BDE8F087E168D9F80030CB1A002BD8BFD7
:10110C00114693DCABE700BF2DE9F04317460A7E8E
:10111C0085B00C46064698460C9D01F1430C002AFE
:10112C0033D0A2F15803D9B2202967D8202B65D827
:10113C00DFE813F0DD006400640064006400640008
:10114C0064006400640064006400A3006E0064002A
:10115C006400640064006E00640064006400640059
:10116C0021007F00BF0064006400AE0064007F00BB
:10117C0064006400E40023681A0640F102812B68C5
:10118C006269191D29601B681A600023E1462361FE
:10119C003B4621463046CDF8008003AAFFF71EFFE0
:1011AC00013020D04A46394630462369C0470130C9
:1011BC0019D02368E0689B07039919D5431A002BB3
:1011CC0016DD002504F1190904E0E0680399431ABF
:1011DC00AB420DDD01234A4639463046C04701304B
:1011EC0005F10105F1D14FF0FF3005B0BDE8F083FA
:1011FC008842B8BF084605B0BDE8F083012384F8E7
:10120C00422004F142092361002384F84330BFE7F4
:10121C002368190602D45A0600F1BF8029680A68AF
:10122C00043129601146002A6ADB0A25DFF87CE1CB
:10123C0010E02368180640F19A802B68191D29606C
:10124C0019686F2A0CBF08250A25DFF860E1002316
:10125C0084F843306268002AA2607DDB236823F0A7
:10126C0004032360002959D1002A77D1E146082DC7
:10127C0063D0ACEB090323618AE701222B6804F1EC
:10128C004209196804332B6084F842102261BBE7D1
:10129C002B6800211A1D2A60D3F80090626848461A
:1012AC0000F0BEFA00287FD0A0EB0900606020613E
:1012BC00AAE7236843F0200323607822DFF8F0E0EC
:1012CC0084F845202A68111D2960190642D45D0650
:1012DC0040D51188D80744BF43F020032360002970
:1012EC0043D12368102523F020032360AFE7582354
:1012FC00DFF8B8E084F845302368E3E72368DCE7DF
:10130C002D2284F8432062684942002AA26002DB45
:10131C0023F0040323600A25DFF890E0E146B1FBDB
:10132C00F5F30A4605FB131019461EF80030AA42C5
:10133C0009F8013DF3D2082D9BD12368D90798D524
:10134C00626823699A4294DC302309F1FF3989F8E9
:10135C0000308EE71168BDE70029DFD19EF8003020
:10136C0004F1420984F8423081E710256FE713F04D
:10137C00400F2B6803F1040129600CBF1968198810
:10138C005FE713F0400F2B68626903F104012960D9
:10139C001B6814BF1A801A60F7E62A68B2F90010AD
:1013AC0004322A600A463EE7606880E75C3E00082B
:1013BC00703E0008002238B5064D044608462A60E7
:1013CC0002F0B6FA431C00D038BD2B68002BFBD0C2
:1013DC00236038BD9400002010B50C46B1F90E10F6
:1013EC0000F084FB002803DB636D0344636510BDD0
:1013FC00A38923F48053A38110BD00BF0020704744
:10140C002DE9F0410C46B1F90C101F46CB050546F1
:10141C0016460BD421F48051A1813B463246284616
:10142C00B4F90E10BDE8F04100F01EB8B4F90E107E
:10143C000223002200F0DEF9B4F90C10EAE700BF39
:10144C0010B50C46B1F90E1000F0D4F9A389421C6A
:10145C000EBF23F4805343F480536065A38110BD09
:10146C00B1F90E1000F016B838B50C461146002232
:10147C008446074D20462A601A46644600F03EFD1D
:10148C00431C00D038BD2B68002BFBD0236038BD2B
:10149C0094000020002238B5064D044608462A6008
:1014AC0002F07AFA431C00D038BD2B68002BFBD01D
:1014BC00236038BD9400002070B50026074D04460B
:1014CC00084611462E6002F06AFA431C00D070BD2B
:1014DC002B68002BFBD0236070BD00BF9400002054
:1014EC009368002B00F0B7802DE9F04FB1F90C3068
:1014FC000C4619078046174683B098B225D5236948
:10150C001BB310F002033D682DD04FF0000B5E466C
:10151C00DFF8B8A2002E00F08B80564533465A46B1
:10152C0028BF53464046216AD4F828C0E04700281B
:10153C0040F38780BB6883441B1A361ABB60002BB0
:10154C00E8D1002003B0BDE8F08F21464046FEF7FD
:10155C0099FF002840F03681B4F90C303D6898B200
:10156C0010F00203D1D110F0010976D14E46002EB5
:10157C005AD08205D4F808B040F1B580B3455A462C
:10158C0000F2CD8010F4906F00F0CB8023682169BD
:10159C00A3EB010B636903EB430A0AEBDA7A0BF159
:1015AC0001034FEA6A0A33445345524684BF9A46B4
:1015BC005246430540F1EA8011464046FFF722FBB4
:1015CC00002800F0F9805A462169019000F070F96A
:1015DC00A289019B22F4906242F08002A28103EB6B
:1015EC000B0023613246AAEB0B03B346C4F814A0DC
:1015FC00A3602060B24600264946019200F0CEF965
:10160C00A3682168019AA3EB0B030A44A360226030
:10161C00B868D144A0EB0A00B860002891D0B4F9A6
:10162C000C0080B2002EA4D1D5E9009608359EE7B7
:10163C00D5E900B608356DE721464046FFF728F896
:10164C0080B3B4F90C304FF0FF3043F04003A3816A
:10165C0003B0BDE8F08F002070471E46AA4699469D
:10166C0018461D4656B3002832D04A4620682169D8
:10167C00B24228BF32468842636904D9A16803EBA1
:10168C00010B5A4574DC934265DC2A464046216ABC
:10169C00D4F828C0E047B0F1000BD2DDB9EB0B0950
:1016AC00CAD00120BB685D44A3EB0B03A6EB0B0671
:1016BC00BB60002B3FF445AF002ED4D10AF10803D8
:1016CC0053F8046C9A4653F8085C0833002EF7D094
:1016DC0032460A21284600F0A3F8002869D00130D0
:1016EC00A0EB0509C1E72068236998421BD8636900
:1016FC00B34218D86FF0004CB44528BFB4469CFBDD
:10170C00F3FC4A4603FB0CF34046216AD4F828C08C
:10171C00E047B0F1000A94DDA6EB0A0678E7B34681
:10172C003246206866E7B345DA4628BFB2464946DA
:10173C00524600F033F9A3682268A3EB0A03524423
:10174C00A3602260002BE7D121464046FEF7A0FFA4
:10175C000028E1D075E729469346019200F01EF966
:10176C00A368019A9B1AA36023681A44226095E728
:10177C0029465A4600F012F9236821465B4440463C
:10178C002360FEF785FF002888D05AE7404600F01A
:10179C0085F9034600287FF422AF40462169FFF704
:1017AC00CBF90C22B4F90C30C8F8002023F08003DC
:1017BC0049E7721C914659E70C22B4F90C30C8F871
:1017CC00002040E74FF0FF30BCE600BF00FCFF7F7D
:1017DC00002238B5064D044608462A6002F0E4F8AB
:1017EC00431C00D038BD2B68002BFBD0236038BDC8
:1017FC009400002038B50C46114600228446074D53
:10180C0020462A601A46644602F0D0F8431C00D0E9
:10181C0038BD2B68002BFBD0236038BD9400002012
:10182C005FFA81FC810710D00346511E2AB90AE0E9
:10183C009A0718460AD0013905D3184613F8012B1C
:10184C006245F5D1704700207047114603290CD82A
:10185C000029F8D00346014401E08B42F3D018462E
:10186C0013F8012B6245F8D1ECE7024610B54CEAAF
:10187C000C2444EA04441046036804326340A3F188
:10188C00013E2EEA030313F0803F04D104390329EF
:10189C001046F0D851B10346014401E08B4205D00B
:1018AC00184613F8012B6245F8D110BD002010BD6D
:1018BC00844641EA000313F0030349D1403A23D391
:1018CC000B6803604B6843608B688360CB68C360B4
:1018DC000B6903614B6943618B698361CB69C3619C
:1018EC000B6A03624B6A43628B6A8362CB6AC36284
:1018FC000B6B03634B6B43638B6B8363CB6BC3636C
:10190C0040304031403ADBD230320BD30B680360AD
:10191C004B6843608B688360CB68C36010301031B8
:10192C00103AF3D20C3205D351F8043B40F8043B87
:10193C00043AF9D2043208D0D2071CBF11F8013B8B
:10194C0000F8013B01D30B8803806046704700BF51
:10195C00082A13D38B07B1D010F00303AED0C3F118
:10196C000403D21ADB071CBF11F8013B00F8013B42
:10197C00A4D331F8023B20F8023B9FE7043AD9D3B9
:10198C00013A11F8013B00F8013BF9D20B780370D6
:10199C004B7843708B7883706046704788420DD9C2
:1019AC008B1883420AD900EB020CBAB1624613F8C9
:1019BC0001CD994202F801CDF9D170470F2A0ED80A
:1019CC00034602F1FF3C4AB10CF1010C013B8C4483
:1019DC0011F8012B614503F8012FF9D1704740EA4A
:1019EC0001039B074FD1A2F1100370B501F1200C3C
:1019FC0023F00F0501F1100E00F11004AC441B098B
:101A0C005EF8105C0EF1100E44F8105C5EF81C5C75
:101A1C00103444F81C5C5EF8185C44F8185C5EF8F2
:101A2C00145CE64544F8145CEAD1013312F00C0F57
:101A3C0001EB031102F00F0400EB031327D08E46C9
:101A4C00043C24F003064FEA940C1E441C1F5EF861
:101A5C00045B44F8045FB442F9D10CF1010402F0C8
:101A6C00030203EB840301EB840102F1FF3C4AB156
:101A7C000CF1010C013B8C4411F8012B614503F86E
:101A8C00012FF9D170BD034602F1FF3C9CE72246C1
:101A9C00EBE700BF704700BF704700BFF8B51446B6
:101AAC00F9B1CAB106460D4600F036F8A04202D391
:101ABC002F463846F8BD21463046FFF7A3F80746B7
:101ACC000028F6D022462946FFF7F2FE304629467A
:101ADC00FFF732F83846F8BD2746FFF72DF83846A1
:101AEC00F8BD1146BDE8F840FFF78CB838B50C4688
:101AFC00114600228446074D20462A601A46644649
:101B0C0001F03AFF431C00D038BD2B68002BFBD0F2
:101B1C00236038BD9400002051F8040C0028A0F17B
:101B2C000400BCBF0B58C018704700BF4FF0FF0C2F
:101B3C001CEAD0521EBF1CEAD15392EA0C0F93EA56
:101B4C000C0F6FD01A4480EA010C400218BF5FEAF8
:101B5C0041211ED04FF0006343EA501043EA51116B
:101B6C00A0FB01310CF00040B1F5000F3EBF490065
:101B7C0041EAD3715B0040EA010062F17F02FD2A69
:101B8C001DD8B3F1004F40EBC25008BF20F001004C
:101B9C00704790F0000F0CF0004C08BF49024CEA63
:101BAC00502040EA51207F3AC2BFD2F1FF0340EAF5
:101BBC00C250704740F400004FF00003013A5DDC66
:101BCC0012F1190FDCBF00F000407047C2F10002A7
:101BDC00410021FA02F1C2F1200200FA02FC5FEA94
:101BEC00310040F1000053EA4C0308BF20EADC70DE
:101BFC00704792F0000F00F0004C02BF400010F450
:101C0C00000F013AF9D040EA0C0093F0000F01F0FC
:101C1C00004C02BF490011F4000F013BF9D041EA1E
:101C2C000C018FE70CEAD15392EA0C0F18BF93EA20
:101C3C000C0F0AD030F0004C18BF31F0004CD8D14A
:101C4C0080EA010000F00040704790F0000F17BFD1
:101C5C0090F0004F084691F0000F91F0004F14D017
:101C6C0092EA0C0F01D142020FD193EA0C0F03D16F
:101C7C004B0218BF084608D180EA010000F0004072
:101C8C0040F0FE4040F40000704740F0FE4040F44D
:101C9C004000704780F0004002E000BF81F000413E
:101CAC0042001FBF5FEA410392EA030F7FEA226CF6
:101CBC007FEA236C6AD04FEA1262D2EB1363C1BF86
:101CCC00D218414048404140B8BF5B42192B88BFF5
:101CDC00704710F0004F40F4000020F07F4018BF18
:101CEC00404211F0004F41F4000121F07F4118BF38
:101CFC00494292EA030F3FD0A2F1010241FA03FCE0
:101D0C0010EB0C00C3F1200301FA03F100F00043C7
:101D1C0002D5494260EB4000B0F5000F13D3B0F18F
:101D2C00807F06D340084FEA310102F10102FE2AFE
:101D3C0051D2B1F1004F40EBC25008BF20F001006E
:101D4C0040EA03007047490040EB0000013A28BF0D
:101D5C00B0F5000FEDD2B0FA80FCACF1080CB2EB90
:101D6C000C0200FA0CF0AABF00EBC250524218430E
:101D7C00BCBFD0401843704792F0000F81F40001B3
:101D8C0006BF80F400000132013BB5E74FEA410386
:101D9C007FEA226C18BF7FEA236C21D092EA030FF2
:101DAC0004D092F0000F08BF0846704790EA010F6C
:101DBC001CBF0020704712F07F4F04D1400028BF99
:101DCC0040F00040704712F100723CBF00F500007B
:101DDC00704700F0004343F0FE4040F400007047B1
:101DEC007FEA226216BF08467FEA2363014642025D
:101DFC0006BF5FEA412390EA010F40F48000704770
:101E0C004FF0000304E000BF10F0004348BF404215
:101E1C005FEA000C08BF704743F0964301464FF051
:101E2C0000001CE050EA010208BF70474FF00003AD
:101E3C000AE000BF50EA010208BF704711F00043EE
:101E4C0002D5404261EB41015FEA010C02BF8446BE
:101E5C000146002043F0B64308BFA3F18053A3F51D
:101E6C000003BCFA8CF2083AA3EBC25310DB01FA64
:101E7C0002FC634400FA02FCC2F12002BCF1004FE8
:101E8C0020FA02F243EB020008BF20F00100704779
:101E9C0002F1200201FA02FCC2F1200250EA4C00CD
:101EAC0021FA02F243EB020008BF20EADC70704713
:101EBC004FEA4002B2F1FE4F0FD34FF09E03B3EB4B
:101ECC0012620DD94FEA002343F0004310F0004F8B
:101EDC0023FA02F018BF404270474FF000007047E1
:101EEC0012F1610F01D1420205D110F0004008BF80
:101EFC006FF0004070474FF00000704710B514466B
:101F0C004FF0FF3392B2024801F066FE204610BD3E
:101F1C00F400002000B587B000238DF817304FF087
:101F2C00FF330293012301930DF1170200920F224C
:101F3C00D721064800F074FE9DF817306C2B03D1A6
:101F4C00012007B05DF804FB0020FAE798000020A0
:101F5C00F0B587B000238DF817306C238DF817304F
:101F6C000E4D4FF0FF370297012401940DF1170627
:101F7C00009623461122D621284600F09FFD6023AF
:101F8C008DF8173002970194009623461022D62123
:101F9C00284600F093FD07B0F0BD00BF980000206C
:101FAC0000B587B000238DF817304FF0FF33029344
:101FBC00012301930DF1170200921122D72106483B
:101FCC0000F02EFE9DF817306C2B03D0002007B0CC
:101FDC005DF804FB0120FAE79800002000B587B0FB
:101FEC0000238DF817304FF0FF3302930123019338
:101FFC000DF1170200921022D721064800F010FEB6
:10200C009DF81730602B03D0002007B05DF804FB5F
:10201C000120FAE79800002070B586B000238DF8F7
:10202C0017308DF81630144D4FF0FF360296012400
:10203C0001940DF11703009323462822D62128463C
:10204C0000F0EEFD029601940DF116030093234669
:10205C002922D621284600F0E3FD9DF816301B02FC
:10206C001BB29DF817001843FFF7CEFE0349FFF78C
:10207C005DFD06B070BD00BF9800002023DB793DEC
:10208C0070B586B000238DF817308DF81630144DCE
:10209C004FF0FF360296012401940DF117030093C3
:1020AC0023462A22D621284600F0BAFD0296019436
:1020BC000DF11603009323462B22D621284600F05F
:1020CC00AFFD9DF816301B021BB29DF8170018438C
:1020DC00FFF79AFE0349FFF729FD06B070BD00BF5C
:1020EC009800002023DB793D70B586B000238DF875
:1020FC0017308DF81630144D4FF0FF360296012430
:10210C0001940DF11703009323462C22D621284667
:10211C0000F086FD029601940DF116030093234600
:10212C002D22D621284600F07BFD9DF816301B028F
:10213C001BB29DF817001843FFF766FE0349FFF723
:10214C00F5FC06B070BD00BF9800002023DB793D84
:10215C0072B6FEE700B591B02822002106A8FEF762
:10216C003DF80023019302930393049305930123F9
:10217C0006934FF48033079306A800F055FF70B90F
:10218C000F230193012302930021039104910591E4
:10219C0001A801F07BF920B911B05DF804FBFFF741
:1021AC00D7FFFFF7D5FF000000B585B000F002FFA8
:1021BC00FFF7D0FF00F056F800F09AF801F0F8FBAA
:1021CC00FFF7A8FE70BB1F48FEF7F2F8FFF7C0FE42
:1021DC00FFF7E6FE01282CD01B48FEF7E9F8FFF7C5
:1021EC00FDFE012829D01948FEF7E2F8FFF714FF8D
:1021FC0004460190FFF744FF05460290FFF774FF79
:10220C000390FFF755FE06462846FFF751FE05469C
:10221C002046FFF74DFE014633462A460C48FEF792
:10222C0045F8E3E70B48FEF7C3F80B48FEF7C0F898
:10223C00CCE70A48FEF7BCF8D1E70948FEF7B8F836
:10224C00D4E700BF6C3D0008B03D0008DC3D000841
:10225C00043E00087C3D00088C3D0008C43D00088D
:10226C00EC3D000830B589B0002404940594069424
:10227C0007941D4B9A6942F010029A619A6902F018
:10228C0010020092009A9A6942F020029A619A69AF
:10229C0002F020020192019A9A6942F004029A61BA
:1022AC009A6902F004020292029A9A6942F00802B8
:1022BC009A619B6903F008030393039B0B4D224621
:1022CC004FF40051284601F0CDFA4FF4005304931B
:1022DC000123059306940223079304A9284601F0D1
:1022EC00B1F909B030BD00BF001002400010014030
:1022FC0008B50B480B4B03600B4B4360002383600A
:10230C00C3604FF48042026143618361C361036225
:10231C0000F0F6FA00B908BDFFF71AFFFBE700BFA3
:10232C009800002000540040A086010010B586B033
:10233C00002302930393049305930268114B9A4272
:10234C0001D006B010BD104CA36943F00803A36183
:10235C00A36903F008030093009BC023029312238C
:10236C0003930323059302A9084801F06BF9E36971
:10237C0043F40013E361E36903F400130193019B3D
:10238C00DFE700BF0054004000100240000C014089
:10239C00FEE7FEE7FEE7FEE7FEE770477047704793
:1023AC0008B500F019FE08BD82B00E4B9A6942F0D8
:1023BC0001029A619A6902F001020092009ADA69AC
:1023CC0042F08052DA61DB6903F080530193019B88
:1023DC00054A536823F0E06343F00073536002B086
:1023EC00704700BF001002400000014003685A69AA
:1023FC0012F4806F01D1002070476FF480625A6133
:10240C0000230363202280F83D2080F83E30026CCC
:10241C0042F00402026480F83C30012070472DE940
:10242C00F04106460C46174698463BE000F0E0FDAE
:10243C00069BC01A404502D8B8F1000F32D1012DCD
:10244C0018D033689B6924EA03039BB2B3FA83F375
:10245C005B099F4226D100233363202286F83D205E
:10246C0086F83E30326C42F02002326486F83C3002
:10247C00012027E033685B6924EA03039BB2B3FABB
:10248C0083F35B09E5E733685B6924EA030C1FFA05
:10249C008CFCBCFA8CFC4FEA5C1C674511D1B8F182
:1024AC00FF3FC3D1C4F30745012DECD033689B69C2
:1024BC0024EA030C1FFA8CFCBCFA8CFC4FEA5C1C63
:1024CC00EBE70020BDE8F0812DE9F84305460E4608
:1024DC009046994653E01A6842F400721A602B68D1
:1024EC006FF480625A6100232B63202285F83D2013
:1024FC0085F83E302A6C42F004022A6485F83C30A0
:10250C0001204AE000F074FDA0EB0900404502D820
:10251C00B8F1000F33D1012F17D02B689B6926EA35
:10252C0003039BB2003B18BF012343B300232B636F
:10253C00202285F83D2085F83E302A6C42F020029E
:10254C002A6485F83C30012027E02B685B6926EA79
:10255C0003039BB2003B18BF0123E6E72B689C6981
:10256C0026EA0404A4B2003C18BF0124A4B12B68D1
:10257C005A6912F4806FAED1B8F1FF3FC2D1C6F3E5
:10258C000747012FEAD12B685C6926EA0404A4B240
:10259C00003C18BF0124E9E70020BDE8F88370B5C2
:1025AC0004460D46164623685B6913F0800F21D153
:1025BC002046FFF71BFFF8B9B5F1FF3FF3D000F051
:1025CC0017FD801BA84201D8002DECD123685B6954
:1025DC0013F0800FE7D100232363202284F83D20E1
:1025EC0084F83E30226C42F02002226484F83C30A5
:1025FC00012000E0002070BD0120FCE72DE9F04334
:10260C0085B004460D4691461F46DDF830800D9E80
:10261C000368196841F480711960009643460022E2
:10262C004FF00111FFF7FBFE60B9236805F0FE05C2
:10263C001D613346424626492046FFF745FF68B1E7
:10264C00012008E023681B6813F4807F02D04FF44C
:10265C0000732364032005B0BDE8F08300230393CB
:10266C0023685A6903929B690393039B3246414644
:10267C002046FFF794FF30B9012F0FD123685FFA82
:10268C0089F61E61E7E7236C042B01D00120E2E7F9
:10269C002268136843F400731360F7E723684FEA6A
:1026AC0019221A61324641462046FFF778FF20B9BD
:1026BC0023685FFA89F61E61CDE7236C042B01D0E9
:1026CC000120C8E72268136843F400731360F7E72E
:1026DC00020001002DE9F04784B004460D46164671
:1026EC0099460C9FDDF834800268136843F48063CC
:1026FC0013600368196841F480711960CDF800808B
:10270C003B4600224FF00111FFF789FE70B95FFACA
:10271C0085FA236805F0FE051D6143463A4641499A
:10272C002046FFF7D1FE68B1012008E023681B6842
:10273C0013F4807F02D04FF400732364032004B0A1
:10274C00BDE8F0870023039323685A6903929B69C1
:10275C000393039B424639462046FFF720FF80B97E
:10276C00B9F1010F18D12368F6B21E614246394601
:10277C002046FFF714FF68B3236C042B24D00120F0
:10278C00DDE7236C042B01D00120D8E72268136805
:10279C0043F400731360F7E72368320A1A61424668
:1027AC0039462046FFF7FBFE18B92368F6B21E61C6
:1027BC00DCE7236C042B01D00120C0E722681368EE
:1027CC0043F400731360F7E72268136843F4007353
:1027DC001360D4E72268136843F480731360CDF858
:1027EC0000803B4600224FF001112046FFF717FEF8
:1027FC0068B922684AF00103136143463A46094915
:10280C002046FFF761FE002899D0012097E7236846
:10281C001B6813F4807F02D04FF4007323640320F1
:10282C008DE700BF0200010070B504460D46164648
:10283C0023685B6913F0040F21D12046FFF7D6FD06
:10284C00F8B9B5F1FF3FF3D000F0D2FB801BA842E2
:10285C0001D8002DECD123685B6913F0040FE7D18C
:10286C0000232363202284F83D2084F83E30226C20
:10287C0042F02002226484F83C30012000E0002069
:10288C0070BD0120FCE770B504460D46164614E0F9
:10289C006FF010025A6100232363202284F83D203C
:1028AC0084F83E30226C226484F83C30012025E010
:1028BC0023685B6913F0400F10D02368586910F03F
:1028CC00400F1AD1586910F0100FE1D100F090FBB5
:1028DC00801BA842ECD8002DEFD1E9E7002323633D
:1028EC00202284F83D2084F83E30226C42F02002F5
:1028FC00226484F83C30012000E0002070BD000010
:10290C00002800F0CC8070B5044690F83D30002BC8
:10291C0077D0242384F83D302268136823F0010318
:10292C0013602268136843F4004313602268136831
:10293C0023F40043136000F065FE62685A4B9A4220
:10294C0064D85A4B98428CBF00230123002B40F0D3
:10295C00A8805749A1FB00318B0C25686A6822F0CE
:10296C003F0242EA91426A6021680A6A22F03F0201
:10297C0066684D4DAE424FD8013313430B6221684C
:10298C00CA6922F44F4222F0FF026668464B9E420F
:10299C004CD8431E7600B3FBF6F3013340F6FC70C3
:1029AC00034278D0C3F30B031343CB6121680B684C
:1029BC0023F0C003E269206A024313430B602168D1
:1029CC008B6823F4034323F0FF032269E06802437E
:1029DC0013438B602168CB6823F0FF036269A06905
:1029EC0002431343CB602268136843F00103136066
:1029FC0000202064202384F83D30206384F83E00BE
:102A0C0070BD80F83C30FFF791FC82E7294B98426F
:102A1C008CBF0023012399E74FF4967505FB03F354
:102A2C00254DA5FB03539B090133A6E7A368BBB94E
:102A3C00451E06EB460CB5FBFCF50135C5F30B0545
:102A4C00B5FA85F56D0945BBC3B9013806EB4603EC
:102A5C00B0FBF3F30133C3F30B0343F40043A3E7DD
:102A6C00451E06EB860C0CEB8C0CB5FBFCF501350E
:102A7C00C5F30B05B5FA85F56D09E4E7013806EBEE
:102A8C00860303EB8303B0FBF3F30133C3F30B03B4
:102A9C0043F4404388E7042386E7012384E70120BD
:102AAC0070470120ACE700BFA08601007F841E00A8
:102ABC0083DE1B43FF083D00D34D62102DE9F0432C
:102ACC0083B004460F46904699460C9E00F090FA4F
:102ADC00054694F83D00C0B2202803D0022003B074
:102AEC00BDE8F0830095192301224B492046FFF7DE
:102AFC0096FC002840F0898094F83C30012B00F0C3
:102B0C008680012384F83C3023681A6812F0010F88
:102B1C0003D11A6842F001021A602268136823F488
:102B2C0000631360212384F83D30402384F83E3049
:102B3C00002323640A9B6362BDF82C306385638D8C
:102B4C002385364BE362019500964B464246394647
:102B5C002046FFF753FD00285BD1238D002B35D089
:102B6C002A4631462046FFF71AFD20BB626A2368CD
:102B7C0012781A61626A531C6362218D013989B221
:102B8C002185638D9BB2013B9BB263852368586999
:102B9C0010F0040FE1D00029DFD052781A61636A7B
:102BAC0001336362238D013B2385638D9BB2013B13
:102BBC009BB26385D1E7236C042B01D001208EE7F7
:102BCC002268136843F400731360F7E72A46314612
:102BDC002046FFF729FE50B1236C042B01D00120B5
:102BEC007DE72268136843F400731360F7E72268EB
:102BFC00136843F400731360202384F83D300023E2
:102C0C0084F83E3084F83C3069E7022067E7022004
:102C1C0065E7012063E700BF020010000000FFFF22
:102C2C002DE9F04389B004460F4690469946129E12
:102C3C000023079300F0DCF9054694F83D00C0B280
:102C4C00202804D00227384609B0BDE8F08300954F
:102C5C001923012281492046FFF7E1FB002840F0AF
:102C6C00728194F83C30012B00F06F81012384F8C1
:102C7C003C3023681A6812F0010F03D11A6842F035
:102C8C0001021A602268136823F400631360222384
:102C9C0084F83D30402384F83E3000232364109B9D
:102CAC006362BDF844306385638D23856C4BE362AE
:102CBC00019500964B46424639462046FFF70AFDE1
:102CCC000746002840F04381238D5BB903932368AA
:102CDC005A6903929A690392039A1A6842F4007231
:102CEC001A60EDE0012B0FD0022B21D02268136863
:102CFC0043F4806313600023069323685A69069299
:102D0C009B690693069BDBE02268136823F48063BF
:102D1C00136072B60023049323685A6904929A696B
:102D2C000492049A1A6842F400721A6062B6C7E000
:102D3C002268136843F40063136072B60023059392
:102D4C0023685A6905929A690592059A1A6822F4C1
:102D5C0080621A6062B6B3E02A4631462046FFF71D
:102D6C0092FD002840F0F58023681A69636A1A7096
:102D7C00636A01336362238D013B2385638D9BB2B0
:102D8C00013B9BB263859BE000953346002235499D
:102D9C002046FFF744FB002840F0DF8022681368D0
:102DAC0023F48063136072B623681A69636A1A701D
:102DBC00636A01336362238D013B2385638D9BB270
:102DCC00013B9BB26385284B1B68DB08274AA2FB9F
:102DDC0003231B0A03EB8303C3EBC3030793079B78
:102DEC00013B0793079B002B28D023685A6912F0EC
:102DFC00040FF4D01A6842F400721A6023681A693E
:102E0C00636A1A70636A01336362238D013B238505
:102E1C00638D9BB2013B9BB2638562B623681A69D2
:102E2C00636A1A70636A01336362238D013B2385E5
:102E3C00638D9BB2013B9BB2638541E023632022EF
:102E4C0084F83D2084F83E30226C42F0200222644B
:102E5C0062B684F83C300127F5E600BF0200100092
:102E6C000000FFFF040001006C00002089B5F8147D
:102E7C002A4631462046FFF706FD00286FD123680D
:102E8C001A69636A1A70626A531C6362238D013B70
:102E9C002385638D9BB2013B9BB263852368596983
:102EAC0011F0040F0CD01B695370636A0133636219
:102EBC00238D013B2385638D9BB2013B9BB26385C4
:102ECC00238D002B36D0032BD2D8012B3FF444AFEB
:102EDC00022B7FF459AF009533460022214920463E
:102EEC00FFF79DFA002836D172B62268136843F4B6
:102EFC000073136023681A69636A1A70636A01337A
:102F0C006362238D013B2385638D9BB2013B9BB296
:102F1C00638562B623681A69636A1A70636A01333F
:102F2C006362238D013B2385638D9BB2013B9BB276
:102F3C006385C5E7202384F83D30002384F83E30B8
:102F4C0084F83C307FE602277DE602277BE60127EA
:102F5C0079E6012777E6012775E6012773E6012755
:102F6C0071E600BF0400010010B504460E4B187842
:102F7C004FF47A73B3FBF0F30C4A1068B0FBF3F028
:102F8C0000F0C0FC68B90F2C01D901200AE0002226
:102F9C0021464FF0FF3000F07DFC054B1C600020FB
:102FAC0000E0012010BD00BF640000206C00002078
:102FBC006800002008B5074A136843F0100313603B
:102FCC00032000F055FC0F20FFF7CEFFFFF7ECF9C4
:102FDC00002008BD00200240034A1168034B1B78F7
:102FEC000B441360704700BFEC000020640000200D
:102FFC00014B1868704700BFEC00002082B0084BF2
:10300C001B68084AA2FB03235B0A00FB03F3019332
:10301C0000BF019B5A1E0192002BF9D102B07047E0
:10302C006C000020D34D6210002800F0F18170B5C7
:10303C0082B00446036813F0010F2CD0994B5B68E7
:10304C0003F00C03042B1DD0964B5B6803F00C03B0
:10305C00082B12D06368B3F5803F41D0002B55D1BB
:10306C0003F1804303F504331A6822F480321A60AA
:10307C001A6822F480221A6037E08A4B5B6813F4DA
:10308C00803FE7D0874B1B6813F4003F03D0636885
:10309C00002B00F0BF81236813F0020F75D0814B19
:1030AC005B6813F00C0F5FD07E4B5B6803F00C0376
:1030BC00082B54D02369002B00F08A807A4B012214
:1030CC001A60FFF795FF0546764B1B6813F0020F4D
:1030DC0075D1FFF78DFF401B0228F5D903209EE127
:1030EC00704A136843F480331360636843B3FFF78B
:1030FC007FFF05466B4B1B6813F4003FCBD1FFF7EA
:10310C0077FF401B6428F5D9032088E1B3F5A02F85
:10311C0009D0644B1A6822F480321A601A6822F4BF
:10312C0080221A60E1E703F18043A3F53C331A686F
:10313C0042F480221A601A6842F480321A60D4E792
:10314C00FFF756FF0546574B1B6813F4003FA2D000
:10315C00FFF74EFF401B6428F5D903205FE1514B6C
:10316C005B6813F4803FA5D14E4B1B6813F0020F24
:10317C0003D02369012B40F04F814A4A136823F096
:10318C00F803616943EAC1031360236813F0080F65
:10319C0033D0A369002B5CD0434B0122C3F88024AD
:1031AC00FFF726FF05463F4B5B6A13F0020F21D158
:1031BC00FFF71EFF401B0228F5D903202FE1394AE7
:1031CC00136823F0F803616943EAC1031360DCE779
:1031DC00354B00221A60FFF70BFF0546314B1B687D
:1031EC0013F0020FD1D0FFF703FF401B0228F5D9D3
:1031FC00032014E10120FFF701FF236813F0040FF3
:10320C0000F09680274BDB6913F0805F34D1254B9F
:10321C00DA6942F08052DA61DB6903F08053019382
:10322C00019B0125214B1B6813F4807F26D0E3689A
:10323C00012B3DD0002B53D103F1804303F5043314
:10324C001A6A22F001021A621A6A22F004021A6245
:10325C0033E0154B0022C3F88024FFF7C9FE054666
:10326C00104B5B6A13F0020FC7D0FFF7C1FE401B77
:10327C000228F5D90320D2E00025D3E70B4A1368C6
:10328C0043F480731360FFF7B3FE0646074B1B68CD
:10329C0013F4807FCBD1FFF7ABFE801B6428F5D9EC
:1032AC000320BCE0001002400000424200700040CD
:1032BC005F4A136A43F001031362E36833B3FFF709
:1032CC0097FE06465A4B1B6A13F0020F2FD1FFF7DD
:1032DC008FFE801B41F288339842F3D903209EE085
:1032EC00052B09D0524B1A6A22F001021A621A6A93
:1032FC0022F004021A62E0E74D4B1A6A42F0040213
:10330C001A621A6A42F001021A62D6E7FFF770FEDF
:10331C000646474B1B6A13F0020F08D0FFF768FEF6
:10332C00801B41F288339842F3D9032077E0E5B94A
:10333C00E369002B72D03E4A526802F00C02082A54
:10334C0056D0022B17D03B4B00221A66FFF750FECB
:10335C000446374B1B6813F0007F47D0FFF748FE3D
:10336C00001B0228F5D9032059E0314AD36923F018
:10337C008053D361DCE72F4B00221A66FFF738FE2F
:10338C0005462B4B1B6813F0007F06D0FFF730FE71
:10339C00401B0228F5D9032041E0236AB3F5803F96
:1033AC001AD023494B6823F47413226A606A0243CF
:1033BC0013434B601F4B01221A66FFF719FE04469C
:1033CC001B4B1B6813F0007F0ED1FFF711FE001B87
:1033DC000228F5D9032022E0154A536823F4003360
:1033EC00A1680B435360DCE7002018E0002016E0D6
:1033FC00012B16D00E4B5B6803F48031226A91428C
:10340C0011D103F47013626A93420ED1002006E0CE
:10341C0001207047012002E0012000E0002002B0F2
:10342C0070BD0120FBE70120F9E70120F7E700BFA1
:10343C0000100240000042420F4B5B6803F00C028C
:10344C00082A01D00D487047C3F383420C49885CAD
:10345C0013F4803F0BD0084B5B68C3F34043094A1D
:10346C00D35C064A02FB00F0B0FBF3F07047064B4E
:10347C0003FB00F0704700BF0010024000127A00FE
:10348C001C3E00082C3E000800093D00002800F0FE
:10349C00A08070B50D460446524B1B6803F0070321
:1034AC008B420BD24F4A136823F007030B43136074
:1034BC00136803F007038B4240F08D80236813F0F0
:1034CC00020F17D013F0040F04D0474A536843F48B
:1034DC00E0635360236813F0080F04D0424A53682A
:1034EC0043F460535360404A536823F0F003A168DF
:1034FC000B435360236813F0010F31D06368012B29
:10350C0020D0022B25D0384A126812F0020F64D05A
:10351C0035494A6822F0030213434B60FFF768FDFC
:10352C000646314B5B6803F00C036268B3EB820F09
:10353C0016D0FFF75DFD801B41F288339842F0D91D
:10354C00032045E0284A126812F4003FE0D1012024
:10355C003EE0254A126812F0007FD9D1012037E0F5
:10356C00204B1B6803F00703AB420AD91D4A1368B2
:10357C0023F007032B431360136803F00703AB42DC
:10358C002DD1236813F0040F06D0174A536823F487
:10359C00E063E1680B435360236813F0080F07D016
:1035AC00114A536823F46053216943EAC103536001
:1035BC00FFF742FF0C4B5B68C3F303130B4AD35C5E
:1035CC00D8400B4B18600B4B1868FFF7CDFC002054
:1035DC0070BD012070470120FAE70120F8E70120B7
:1035EC00F6E700BF0020024000100240303E000809
:1035FC006C00002068000020014B1868704700BF69
:10360C006C00002008B5FFF7F7FF044B5B68C3F3B1
:10361C000223034AD35CD84008BD00BF001002400F
:10362C00403E000808B5FFF7E7FF044B5B68C3F3A7
:10363C00C223034AD35CD84008BD00BF001002402F
:10364C00403E000870B582B00024A4468BE07F4D4C
:10365C00AA4210D007D97E4DAA420CD005F5803570
:10366C00AA4208D015E0A5F58015AA4203D005F5AD
:10367C007025AA4209D18A68002A00F0BF80012A6D
:10368C0000F0B7804361082403E0A5F58015AA4239
:10369C00F1D0BEF1FF0F00F2B3800646BEF1FF0F72
:1036AC0000F2B0804FEA8C0233680F25954023EA74
:1036BC00050304FA02F2134333604B6813F0805F86
:1036CC004FD0644B9A6942F001029A619B6903F0F6
:1036DC0001030193019B4FEA9C02951C5E4B53F82E
:1036EC0025600CF003039D000F23AB4026EA030674
:1036FC005A4B984200F08C8003F58063984200F09E
:10370C00898003F58063984200F080800323AB40EE
:10371C0033430232504D45F822304B6813F4801F6E
:10372C007AD04F4A936843EA0E0393604B6813F4C4
:10373C00001F77D04A4AD36843EA0E03D3604B6824
:10374C0013F4003F74D0464A536843EA0E035360A7
:10375C004B6813F4803F71D0414A136843EA0E035F
:10376C0013600CF1010C0A6832FA0CF36CD00123D3
:10377C0003FA0CF302EA030E33EA0202F1D14A68AF
:10378C00122A3FF664AF122A83D801A555F822F00D
:10379C0083360008E9370008F337000805380008BD
:1037AC009F3600089F3600089F3600089F36000899
:1037BC009F3600089F3600089F3600089F36000889
:1037CC009F3600089F3600089F3600089F36000879
:1037DC009F360008ED370008F9370008CC6858E729
:1037EC00CC68043455E7CC68083452E7CC680C3408
:1037FC004FE7036108244CE700244AE7042448E718
:10380C00061D4BE7ACF1080292004DE702237EE760
:10381C0000237CE701237AE7114A936823EA0E031D
:10382C00936083E70E4AD36823EA0E03D36086E7DE
:10383C000B4A536823EA0E03536089E7084A13685E
:10384C0023EA0E0313608CE702B070BD0000221057
:10385C00000031100010024000000140000801403F
:10386C00000401400AB1016170470904016170470D
:10387C00074AD36823F4E0631B041B0C000200F41A
:10388C00E060034343F0BF6343F40033D3607047FD
:10389C0000ED00E000B5194BDB68C3F30223C3F164
:1038AC00070CBCF1040F28BF4FF0040C03F1040EFD
:1038BC00BEF1060F18D9033B4FF0FF3E0EFA0CFC7D
:1038CC0021EA0C0199400EFA03F322EA030319438F
:1038DC0000280BDB0901C9B200F1604000F5614022
:1038EC0080F800135DF804FB0023E5E700F00F00FF
:1038FC000901C9B2024B1954F4E700BF00ED00E016
:10390C0014ED00E00138B0F1807F0BD24FF0E023D2
:10391C005861054AF02182F8231000209861072293
:10392C001A6170470120704700ED00E070470000FD
:10393C0010B503460C4A0D490D48006840B10C48BF
:10394C0000680344521A934206D8094A136010BD0A
:10395C000748084C0460F2E7FCF716FC0C230360E4
:10396C004FF0FF30F3E700BF0028002000040000F8
:10397C00F00000204001002070B50C4616460025D2
:10398C0006E0AFF30080214601F8010B01350C462F
:10399C00B542F6DB304670BD4FF0FF3070474FF448
:1039AC0000534B6000207047012070470020704787
:1039BC0008B50A480A4B03604FF4E1334360002317
:1039CC008360C36003610C2242618361C36100F0B8
:1039DC00D3F800B908BDFEF7BBFBFBE7F4000020F1
:1039EC000038014010B586B0002302930393049372
:1039FC0005930268174B9A4201D006B010BD03F52F
:103A0C0058439A6942F480429A619A6902F480425E
:103A1C000092009A9A6942F004029A619B6903F041
:103A2C0004030193019B4FF400730293022303934D
:103A3C0003230593084C02A92046FFF703FE4FF41D
:103A4C008063029300230393049302A92046FFF79B
:103A5C00F9FDD2E7003801400008014010B50446DA
:103A6C000268136923F44053C1680B4313618368E4
:103A7C000269134342691A430168CB6823F4B053BB
:103A8C0023F00C031343CB600268536923F4407397
:103A9C0081690B4353610268134B9A4220D0FFF7A4
:103AAC00B1FD024602EB820202EB820263689B00CC
:103ABC00B2FBF3F20D48A0FB02314909642303FB6E
:103ACC0011231B013233A0FB03235B0903F0F0022B
:103ADC0002EB011203F00F03216813448B6010BD3D
:103AEC00FFF7A0FD0246DDE7003801401F85EB51D2
:103AFC002DE9F84305460F4616469946DDF8208019
:103B0C002C68246837EA04030CBF4FF0010C4FF00B
:103B1C00000CB4452DD1B8F1FF3FF1D0B8F1000F36
:103B2C0005D0FFF765FAA0EB09004045E8D92A68F3
:103B3C0002F10C0353E8003F23F4D0730C3242E83B
:103B4C0000310029F3D12A6802F1140353E8003F35
:103B5C0023F00103143242E800310029F3D1202371
:103B6C0085F8413085F84230002385F84030032039
:103B7C0000E00020BDE8F88360B310B5044690F86F
:103B8C00413013B3242384F841302268D36823F4E2
:103B9C000053D3602046FFF761FF2268136923F4BA
:103BAC00904313612268536923F02A0353612268FE
:103BBC00D36843F40053D36000206064202384F85E
:103BCC00413084F84230606310BD80F84030FFF71C
:103BDC0009FFD7E7012070472DE9F04182B01E465E
:103BEC0090F84130DBB2202B4BD104460D46904669
:103BFC0000294AD00AB9012044E000234364212360
:103C0C0080F84130FFF7F4F90746A4F82480A4F8B3
:103C1C002680A368B3F5805F02D04FF000080FE058
:103C2C002369FBB14FF000080AE038F8023B226828
:103C3C00C3F308035360E28C92B2013A92B2E2846D
:103C4C00E38C9BB28BB100963B4600228021204630
:103C5C00FFF74EFFD8B9002DE7D015F8012B2368DC
:103C6C005A60E8E7A8460025EAE700963B460022A2
:103C7C0040212046FFF73CFF58B9202384F84130FF
:103C8C0000E0022002B0BDE8F0810120FAE7032039
:103C9C00F8E70320F6E70000FFF748FE0B480C4955
:103CAC000C4A002302E0D458C4500433C4188C428C
:103CBC00F9D3094A094C002301E013600432A242F3
:103CCC00FBD3FCF767FAFEF76FFA70470000002091
:103CDC00700000208C3E0008700000203C01002089
:103CEC00FEE70000F8B500BFF8BC08BC9E46704764
:0C3CFC00F8B500BFF8BC08BC9E4670473D
:103D08000400002000000000000000000000000087
:103D1800000000000000000000000000000000009B
:103D2800000000000000000000000000000000008B
:103D3800000000000000000000000000000000007B
:103D4800000000000000000000000000000000006B
:103D5800000000000000000000000000000000005B
:103D6800000000004C534D5F6E6F745F666F756E98
:103D7800640D00004C534D5F666F756E642E2E0DFA
:103D880000000000696E697469616C697A696E6720
:103D98002073697820617869732073656E736F7218
:103DA8002E2E2E2E0D0000006779726F5F696E69E6
:103DB800745F6661696C65640D0000006779726FF5
:103DC8005F696E69745F7375636365737366756C39
:103DD8000D000000584C5F696E69745F6661696C1C
:103DE80065640D00584C5F696E69745F7375636331
:103DF80065737366756C6C0D000000004163636544
:103E08006C3A20583D256420593D2564205A3D25AB
:103E1800640D0A0002030405060708090A0B0C0DC5
:103E28000E0F10100102000000000000000000004A
:103E38000102030406070809000000000102030448
:103E4800232D302B20000000686C4C006566674508
:103E5800464700003031323334353637383941423D
:103E6800434445460000000030313233343536379C
:0C3E780038396162636465660000000078
:043E840075010008BC
:043E88004D010008E0
:103E8C0004000020000000004C3D00082C3D000800
:103E9C000C3D0008000000000000000000000000C5
:103EAC000000000000000000000000000000000006
:103EBC0000000000000000000000000000000000F6
:103ECC0000000000000000000000000000000000E6
:103EDC0000000000000000000000000000000000D6
:103EEC000000000001000000100000000024F4009D
:0400000508003CA50E
:00000001FF
