:020000040800F2
:1000000000280020612400085D0B00085F0B000839
:10001000610B0008630B0008650B0008000000007E
:10002000000000000000000000000000670B000856
:10003000690B0008000000006B0B00086D0B000846
:10004000A9240008A9240008A9240008A92400085C
:10005000A9240008A9240008A9240008A92400084C
:10006000A9240008A9240008A9240008A92400083C
:10007000A9240008A9240008A9240008A92400082C
:10008000A9240008A9240008A9240008A92400081C
:10009000A9240008A9240008A9240008A92400080C
:1000A000A9240008A9240008A9240008A9240008FC
:1000B000A9240008A924000800000000A9240008C1
:1000C000A92400080000000000000000A924000886
:1000D00000000000A9240008A92400080000000076
:1000E000A9240008A9240008A92400080000000091
:1000F0000000000000000000000000000000000000
:0C01000000000000000000005FF808F1A3
:10010C004FF0FF0C1CEAD0521EBF1CEAD15392EAEE
:10011C000C0F93EA0C0F6FD01A4480EA010C4002CA
:10012C0018BF5FEA41211ED04FF0006343EA501024
:10013C0043EA5111A0FB01310CF00040B1F5000F66
:10014C003EBF490041EAD3715B0040EA010062F115
:10015C007F02FD2A1DD8B3F1004F40EBC25008BFFF
:10016C0020F00100704790F0000F0CF0004C08BF1D
:10017C0049024CEA502040EA51207F3AC2BFD2F1EA
:10018C00FF0340EAC250704740F400004FF00003F8
:10019C00013A5DDC12F1190FDCBF00F00040704732
:1001AC00C2F10002410021FA02F1C2F1200200FA70
:1001BC0002FC5FEA310040F1000053EA4C0308BF37
:1001CC0020EADC70704792F0000F00F0004C02BF88
:1001DC00400010F4000F013AF9D040EA0C0093F003
:1001EC00000F01F0004C02BF490011F4000F013B5D
:1001FC00F9D041EA0C018FE70CEAD15392EA0C0FCB
:10020C0018BF93EA0C0F0AD030F0004C18BF31F035
:10021C00004CD8D180EA010000F00040704790F00B
:10022C00000F17BF90F0004F084691F0000F91F0AF
:10023C00004F14D092EA0C0F01D142020FD193EA75
:10024C000C0F03D14B0218BF084608D180EA0100FD
:10025C0000F0004040F0FE4040F40000704740F0D9
:10026C00FE4040F44000704780F0004002E000BFC8
:10027C0081F0004142001FBF5FEA410392EA030F85
:10028C007FEA226C7FEA236C6AD04FEA1262D2EBCF
:10029C001363C1BFD218414048404140B8BF5B42D4
:1002AC00192B88BF704710F0004F40F4000020F06D
:1002BC007F4018BF404211F0004F41F4000121F083
:1002CC007F4118BF494292EA030F3FD0A2F10102CD
:1002DC0041FA03FC10EB0C00C3F1200301FA03F10B
:1002EC0000F0004302D5494260EB4000B0F5000F2E
:1002FC0013D3B0F1807F06D340084FEA310102F1ED
:10030C000102FE2A51D2B1F1004F40EBC25008BF9E
:10031C0020F0010040EA03007047490040EB000068
:10032C00013A28BFB0F5000FEDD2B0FA80FCACF169
:10033C00080CB2EB0C0200FA0CF0AABF00EBC25096
:10034C0052421843BCBFD0401843704792F0000F84
:10035C0081F4000106BF80F400000132013BB5E7D7
:10036C004FEA41037FEA226C18BF7FEA236C21D04D
:10037C0092EA030F04D092F0000F08BF08467047B2
:10038C0090EA010F1CBF0020704712F07F4F04D180
:10039C00400028BF40F00040704712F100723CBF93
:1003AC0000F50000704700F0004343F0FE4040F4BD
:1003BC00000070477FEA226216BF08467FEA23637B
:1003CC000146420206BF5FEA412390EA010F40F466
:1003DC00800070474FF0000304E000BF10F00043B2
:1003EC0048BF40425FEA000C08BF704743F0964399
:1003FC0001464FF000001CE050EA010208BF7047B4
:10040C004FF000030AE000BF50EA010208BF70473A
:10041C0011F0004302D5404261EB41015FEA010C4F
:10042C0002BF84460146002043F0B64308BFA3F147
:10043C008053A3F50003BCFA8CF2083AA3EBC25329
:10044C0010DB01FA02FC634400FA02FCC2F1200248
:10045C00BCF1004F20FA02F243EB020008BF20F07F
:10046C000100704702F1200201FA02FCC2F12002E5
:10047C0050EA4C0021FA02F243EB020008BF20EADA
:10048C00DC7070474FEA4002B2F1FE4F0FD34FF0D1
:10049C009E03B3EB12620DD94FEA002343F00043E5
:1004AC0010F0004F23FA02F018BF404270474FF093
:1004BC000000704712F1610F01D1420205D110F01A
:1004CC00004008BF6FF0004070474FF000007047CD
:1004DC0010B5054C237833B9044B13B10448AFF372
:1004EC0000800123237010BD680000200000000074
:1004FC00D833000808B5034B1BB103490348AFF3CD
:10050C00008008BD000000006C000020D8330008FB
:10051C0030B589B0002404940594069407941D4BBF
:10052C009A6942F010029A619A6902F010020092E4
:10053C00009A9A6942F020029A619A6902F02002AC
:10054C000192019A9A6942F004029A619A6902F046
:10055C0004020292029A9A6942F008029A619B691B
:10056C0003F008030393039B0B4D22464FF40051F9
:10057C00284600F06BFD4FF40053049301230593C0
:10058C0006940223079304A9284600F055FC09B0F1
:10059C0030BD00BF001002400010014008B50B48F0
:1005AC000B4B03600B4B436000238360C3604FF421
:1005BC008042026143618361C361036200F0D6FF34
:1005CC0000B908BD00F00AFAFBE700BF8400002068
:1005DC0000540040A086010010B586B000230293A1
:1005EC000393049305930268154B9A4201D006B00D
:1005FC0010BD144CA36943F00803A361A36903F075
:10060C0008030093009B4FF440730293122303934F
:10061C000323059302A90C4800F00EFC0B4A536807
:10062C0043F0E06343F002035360E36943F40013C7
:10063C00E361E36903F400130193019BD7E700BF67
:10064C000054004000100240000C0140000001402A
:10065C0000B587B000238DF817304FF0FF330293AD
:10066C00012301930DF1170200920F22D7210648A6
:10067C0001F00CF99DF817306C2B03D1012007B059
:10068C005DF804FB0020FAE784000020F0B587B089
:10069C0000238DF817306C238DF817300E4D4FF06A
:1006AC00FF370297012401940DF11706009623469B
:1006BC001122D621284601F037F860238DF8173027
:1006CC0002970194009623461022D621284601F069
:1006DC002BF807B0F0BD00BF8400002000B587B038
:1006EC0000238DF817304FF0FF3302930123019351
:1006FC000DF1170200921122D721064801F0C6F81D
:10070C009DF817306C2B03D0002007B05DF804FB6C
:10071C000120FAE78400002000B587B000238DF893
:10072C0017304FF0FF330293012301930DF11702A1
:10073C0000921022D721064801F0A8F89DF8173036
:10074C00602B03D0002007B05DF804FB0120FAE712
:10075C008400002070B586B000238DF817308DF81A
:10076C001630144D4FF0FF360296012401940DF112
:10077C001703009323462222D621284601F086F83F
:10078C00029601940DF11603009323462322D621E1
:10079C00284601F07BF89DF816301B021BB29DF821
:1007AC0017001843FFF71AFE0349FFF7A9FC06B020
:1007BC0070BD00BF8400002000008C4270B586B074
:1007CC0000238DF817308DF81630144D4FF0FF368E
:1007DC000296012401940DF1170300932346242261
:1007EC00D621284601F052F8029601940DF1160319
:1007FC00009323462522D621284601F047F89DF880
:10080C0016301B021BB29DF817001843FFF7E6FDCC
:10081C000349FFF775FC06B070BD00BF84000020D3
:10082C0000008C4270B586B000238DF817308DF81F
:10083C001630144D4FF0FF360296012401940DF141
:10084C001703009323462622D621284601F01EF8D2
:10085C00029601940DF11603009323462722D6210C
:10086C00284601F013F89DF816301B021BB29DF8B8
:10087C0017001843FFF7B2FD0349FFF741FC06B020
:10088C0070BD00BF8400002000008C4270B586B0A3
:10089C0000238DF817308DF81630144D4FF0FF36BD
:1008AC000296012401940DF117030093234628228C
:1008BC00D621284600F0EAFF029601940DF11603AA
:1008CC00009323462922D621284600F0DFFF9DF80D
:1008DC0016301B021BB29DF817001843FFF77EFD64
:1008EC000349FFF70DFC06B070BD00BF840000206B
:1008FC0023DB793D70B586B000238DF817308DF869
:10090C001630144D4FF0FF360296012401940DF170
:10091C001703009323462A22D621284600F0B6FF5F
:10092C00029601940DF11603009323462B22D62137
:10093C00284600F0ABFF9DF816301B021BB29DF849
:10094C0017001843FFF74AFD0349FFF7D9FB06B020
:10095C0070BD00BF8400002023DB793D70B586B0EC
:10096C0000238DF817308DF81630144D4FF0FF36EC
:10097C000296012401940DF11703009323462C22B7
:10098C00D621284600F082FF029601940DF1160341
:10099C00009323462D22D621284600F077FF9DF8A0
:1009AC0016301B021BB29DF817001843FFF716FDFB
:1009BC000349FFF7A5FB06B070BD00BF8400002003
:1009CC0023DB793D10B514464FF0FF3392B2024849
:1009DC0001F0E0FC204610BDDC00002072B6FEE702
:1009EC0000B591B02822002106A801F063FF002376
:1009FC0001930293039304930593012306934FF4FD
:100A0C008033079306A801F0FBF870B90F2301930C
:100A1C0001230293002103910491059101A801F097
:100A2C0021FB20B911B05DF804FBFFF7D7FFFFF7EE
:100A3C00D5FF000000B587B000F05CF9FFF7D0FFE0
:100A4C00FFF766FDFFF7AAFD00F0D0F8FFF700FEF8
:100A5C0000283BD1254801F04DFEFFF717FEFFF7AC
:100A6C003DFE012839D0224801F044FEFFF754FE28
:100A7C00012836D01F4801F03DFEFFF76BFE0390B6
:100A8C00FFF79CFE0490FFF7CDFE0590FFF7FEFEEE
:100A9C0004460090FFF72EFF05460190FFF75EFF1E
:100AAC000290FFF7EFFC06462846FFF7EBFC0546E5
:100ABC002046FFF7E7FC014633462A460E4801F074
:100ACC00B1FD4FF47A7000F039F9D6E70B4801F01C
:100ADC0011FE0B4801F00EFEBFE70A4801F00AFEBA
:100AEC00C4E7094801F006FEC7E700BFF033000871
:100AFC0038340008643400088C34000804340008CE
:100B0C00143400084C3400087434000882B00E4BC6
:100B1C009A6942F001029A619A6902F0010200920C
:100B2C00009ADA6942F08052DA61DB6903F0805393
:100B3C000193019B054A536823F0E06343F0007373
:100B4C00536002B0704700BF00100240000001402B
:100B5C00FEE7FEE7FEE7FEE7FEE7704770477047EB
:100B6C0008B500F0D9F808BD70B50C46164600253E
:100B7C0006E0AFF30080214601F8010B01350C466D
:100B8C00B542F6DB304670BD4FF0FF3070474FF486
:100B9C0000534B60002070470120704700207047C5
:100BAC0010B503460C4A0D490D48006840B10C487D
:100BBC0000680344521A934206D8094A136010BDC8
:100BCC000748084C0460F2E701F0C2FE0C230360F6
:100BDC004FF0FF30F3E700BF0028002000040000B6
:100BEC00D8000020780200207047000008B50A48A1
:100BFC000A4B03604FF4E133436000238360C3600E
:100C0C0003610C2242618361C36101F093FB00B963
:100C1C0008BDFFF7E3FEFBE7DC00002000380140D5
:100C2C0010B586B0002302930393049305930268D6
:100C3C001A4B9A4201D006B010BD03F558439A697D
:100C4C0042F480429A619A6902F480420092009ABE
:100C5C009A6942F008029A619B6903F008030193B8
:100C6C00019B4023029302230393032305930C4C13
:100C7C0002A9204600F0E0F880230293002303939E
:100C8C00049302A9204600F0D7F8064A536843F0B3
:100C9C00E06343F004035360CDE700BF003801402C
:100CAC00000C01400000014010B504460E4B1A78B0
:100CBC004FF47A73B3FBF2F30C4A1068B0FBF3F009
:100CCC0000F0A6F868B90F2C01D901200AE0002227
:100CDC0021464FF0FF3000F08BF8054B1C600020D4
:100CEC0000E0012010BD00BF040000200000002027
:100CFC000800002008B5074A136843F0100313607E
:100D0C00032000F063F80F20FFF7CEFFFFF7FEFE85
:100D1C00002008BD00200240034A1168034B1B78D9
:100D2C000B441360704700BF240100200400002016
:100D3C00014B1868704700BF2401002038B50446E9
:100D4C00FFF7F6FF0546B4F1FF3F02D0044B1B78CA
:100D5C001C44FFF7EDFF401BA042FAD338BD00BF87
:100D6C0004000020002808DB0901C9B200F1604032
:100D7C0000F5614080F80013704700F00F00090186
:100D8C00C9B2014B1954704714ED00E000B500F0E6
:100D9C000700C0F1070CBCF1040F28BF4FF0040C86
:100DAC00031D062B0FD9C31E4FF0FF3E0EFA0CF09D
:100DBC0021EA000199400EFA03FE22EA0E0241EAF2
:100DCC0002005DF804FB0023EEE70000074AD3683D
:100DDC0023F4E0631B041B0C000200F4E0600343EB
:100DEC0043F0BF6343F40033D360704700ED00E081
:100DFC0010B50446054BD868C0F30220FFF7C6FFB8
:100E0C0001462046FFF7AEFF10BD00BF00ED00E02D
:100E1C000138B0F1807F0BD24FF0E0235861054AC6
:100E2C00F02182F823100020986107221A61704784
:100E3C000120704700ED00E070B582B00024A4469C
:100E4C0087E07C4DAB4214D00CD8A5F58015AB4295
:100E5C000FD005F57025AB420BD0A5F58015AB4234
:100E6C0012D106E0744DAB4203D005F58035AB4290
:100E7C000AD18B68002B00F0B580012B00F0AD80FF
:100E8C004261082400E0CC68BEF1FF0F00F2AC8098
:100E9C0006464FEA8C0233680F25954023EA05037A
:100EAC0004FA02F2134333604B6813F0805F4ED0A8
:100EBC00624B9A6942F001029A619B6903F001034B
:100ECC000193019B4FEA9C02951C5D4B53F82560E6
:100EDC000CF00305AD000F23AB4026EA0306594B7B
:100EEC00984200F0888003F58063984200F085807A
:100EFC0003F5806398427CD00323AB40334302322A
:100F0C004F4D45F822304B6813F4801F77D04E4A72
:100F1C00936843EA0E0393604B6813F4001F74D07C
:100F2C00494AD36843EA0E03D3604B6813F4003F7D
:100F3C0071D0454A536843EA0E0353604B6813F46F
:100F4C00803F6ED0404A136843EA0E0313600CF1E5
:100F5C00010C0B6833FA0CF269D0012202FA0CF284
:100F6C0003EA020E32EA0303F1D14B68122B3FF66F
:100F7C0068AF122B88D801A555F823F07F0E000816
:100F8C00930E0008DB0F0008ED0F0008950E00080B
:100F9C00950E0008950E0008950E0008950E000899
:100FAC00950E0008950E0008950E0008950E000889
:100FBC00950E0008950E0008950E0008950E000879
:100FCC00D50F0008E10F0008CC6804345CE7CC684E
:100FDC00083459E7CC680C3456E70261082453E70F
:100FEC00002451E704244FE7061DACF108029200DF
:100FFC0051E7022381E700237FE701237DE7124AB3
:10100C00936823EA0E03936086E70F4AD36823EABA
:10101C000E03D36089E70C4A536823EA0E0353602E
:10102C008CE7094A136823EA0E0313608FE702B0BA
:10103C0070BD00BF000022100000311000100240F3
:10104C000000014000080140000401400AB10161A8
:10105C00704709040161704703685A6912F4806F84
:10106C0001D1002070476FF480625A610023036342
:10107C00202280F83D2080F83E30026C42F00402C1
:10108C00026480F83C30012070472DE9F04106469F
:10109C000C46174698463BE0FFF74AFE069BC01AE3
:1010AC00404502D8B8F1000F32D1012D18D0336869
:1010BC009B6924EA03039BB2B3FA83F35B099F4257
:1010CC0026D100233363202286F83D2086F83E305B
:1010DC00326C42F02002326486F83C30012027E06A
:1010EC0033685B6924EA03039BB2B3FA83F35B09AD
:1010FC00E5E733685B6924EA030C1FFA8CFCBCFA45
:10110C008CFC4FEA5C1C674511D1B8F1FF3FC3D191
:10111C00C4F30745012DECD033689B6924EA030C1A
:10112C001FFA8CFCBCFA8CFC4FEA5C1CEBE7002031
:10113C00BDE8F0812DE9F84305460E4690469946E8
:10114C0053E01A6842F400721A602B686FF48062E4
:10115C005A6100232B63202285F83D2085F83E3010
:10116C002A6C42F004022A6485F83C3001204AE0E3
:10117C00FFF7DEFDA0EB0900404502D8B8F1000FE7
:10118C0033D1012F17D02B689B6926EA03039BB23E
:10119C00003B18BF012343B300232B63202285F8A7
:1011AC003D2085F83E302A6C42F020022A6485F8F6
:1011BC003C30012027E02B685B6926EA03039BB2D5
:1011CC00003B18BF0123E6E72B689C6926EA040460
:1011DC00A4B2003C18BF0124A4B12B685A6912F4C4
:1011EC00806FAED1B8F1FF3FC2D1C6F30747012FD4
:1011FC00EAD12B685C6926EA0404A4B2003C18BF4F
:10120C000124E9E70020BDE8F88370B504460D46DB
:10121C00164623685B6913F0800F21D12046FFF737
:10122C001BFFF8B9B5F1FF3FF3D0FFF781FD801B31
:10123C00A84201D8002DECD123685B6913F0800F14
:10124C00E7D100232363202284F83D2084F83E302C
:10125C00226C42F02002226484F83C30012000E031
:10126C00002070BD0120FCE72DE9F04385B0044659
:10127C000D4691461F46DDF830800D9E03681968B7
:10128C0041F4807119600096434600224FF0011121
:10129C00FFF7FBFE60B9236805F0FE051D613346C0
:1012AC00424626492046FFF745FF68B1012008E079
:1012BC0023681B6813F4807F02D04FF400732364FF
:1012CC00032005B0BDE8F0830023039323685A691B
:1012DC0003929B690393039B324641462046FFF7DA
:1012EC0094FF30B9012F0FD123685FFA89F61E6184
:1012FC00E7E7236C042B01D00120E2E72268136896
:10130C0043F400731360F7E723684FEA19221A615C
:10131C00324641462046FFF778FF20B923685FFA32
:10132C0089F61E61CDE7236C042B01D00120C8E7A0
:10133C002268136843F400731360F7E7020001009E
:10134C002DE9F04784B004460D46164699460C9F8D
:10135C00DDF834800268136843F48063136003681B
:10136C00196841F480711960CDF800803B46002269
:10137C004FF00111FFF789FE70B95FFA85FA236807
:10138C0005F0FE051D6143463A4641492046FFF7EC
:10139C00D1FE68B1012008E023681B6813F4807F3C
:1013AC0002D04FF400732364032004B0BDE8F0872F
:1013BC000023039323685A6903929B690393039B4D
:1013CC00424639462046FFF720FF80B9B9F1010F9C
:1013DC0018D12368F6B21E61424639462046FFF703
:1013EC0014FF68B3236C042B24D00120DDE7236C9D
:1013FC00042B01D00120D8E72268136843F4007352
:10140C001360F7E72368320A1A61424639462046D0
:10141C00FFF7FBFE18B92368F6B21E61DCE7236CFC
:10142C00042B01D00120C0E72268136843F4007339
:10143C001360F7E72268136843F400731360D4E772
:10144C002268136843F480731360CDF800803B4628
:10145C0000224FF001112046FFF717FE68B92268F1
:10146C004AF00103136143463A4609492046FFF707
:10147C0061FE002899D0012097E723681B6813F4BC
:10148C00807F02D04FF40073236403208DE700BFEC
:10149C000200010070B504460D46164623685B69D0
:1014AC0013F0040F21D12046FFF7D6FDF8B9B5F1A2
:1014BC00FF3FF3D0FFF73CFC801BA84201D8002D66
:1014CC00ECD123685B6913F0040FE7D1002323638D
:1014DC00202284F83D2084F83E30226C42F0200219
:1014EC00226484F83C30012000E0002070BD012013
:1014FC00FCE770B504460D46164614E06FF010027A
:10150C005A6100232363202284F83D2084F83E3066
:10151C00226C226484F83C30012025E023685B694E
:10152C0013F0400F10D02368586910F0400F1AD1F7
:10153C00586910F0100FE1D1FFF7FAFB801BA8429D
:10154C00ECD8002DEFD1E9E700232363202284F8A7
:10155C003D2084F83E30226C42F02002226484F854
:10156C003C30012000E0002070BD0000002800F09D
:10157C00CC8070B5044690F83D30002B77D02423F6
:10158C0084F83D302268136823F00103136022684D
:10159C00136843F4004313602268136823F4004378
:1015AC00136000F01BFE62685A4B9A4264D85A4B87
:1015BC0098428CBF00230123002B40F0A880574990
:1015CC00A1FB00318B0C25686A6822F03F0242EACD
:1015DC0091426A6021680A6A22F03F0266684D4DAA
:1015EC00AE424FD8013313430B622168CA6922F40F
:1015FC004F4222F0FF026568464B9D424CD8431E79
:10160C006D00B3FBF5F3013340F6FC70034278D068
:10161C00C3F30B031A43CA6121680B6823F0C003A0
:10162C00E269206A024313430B6021688B6823F440
:10163C00034323F0FF032269E068024313438B60EA
:10164C002168CB6823F0FF036269A069024313434E
:10165C00CB602268136843F0010313600020206400
:10166C00202384F83D30206384F83E0070BD80F860
:10167C003C30FEF7B1FF82E7294B98428CBF002328
:10168C00012399E74FF4967505FB03F3254DA5FB54
:10169C0003539B090133A6E7A668BEB9431E05EBAD
:1016AC00450CB3FBFCF30133C3F30B03B3FA83F325
:1016BC005B0943BBC6B9431E05EB4505B3FBF5F30C
:1016CC000133C3F30B0343F40043A3E7431E05EBC1
:1016DC00850C0CEB8C0CB3FBFCF30133C3F30B0349
:1016EC00B3FA83F35B09E4E7431E05EB850505EBD1
:1016FC008505B3FBF5F30133C3F30B0343F440430C
:10170C0088E7042386E7012384E701207047012042
:10171C00ACE700BFA08601007F841E0083DE1B4364
:10172C00FF083D00D34D62102DE9F04383B0044611
:10173C000F46904699460C9EFFF7FAFA054694F828
:10174C003D00C0B2202803D0022003B0BDE8F083D6
:10175C000095192301224B492046FFF796FC0028DF
:10176C0040F0898094F83C30012B00F086800123F6
:10177C0084F83C3023681A6812F0010F03D11A6800
:10178C0042F001021A602268136823F400631360AC
:10179C00212384F83D30402384F83E300023236419
:1017AC000A9B6362BDF82C306385638D2385364BB1
:1017BC00E362019500964B46424639462046FFF7B8
:1017CC0053FD00285BD1238D002B35D02A463146A2
:1017DC002046FFF71AFD20BB626A236812781A6153
:1017EC00626A531C6362218D013989B22185638D34
:1017FC009BB2013B9BB263852368586910F0040FC0
:10180C00E1D00029DFD052781A61636A0133636238
:10181C00238D013B2385638D9BB2013B9BB263857A
:10182C00D1E7236C042B01D001208EE722681368CA
:10183C0043F400731360F7E72A4631462046FFF75E
:10184C0029FE50B1236C042B01D001207DE72268C6
:10185C00136843F400731360F7E72268136843F4CA
:10186C0000731360202384F83D30002384F83E304D
:10187C0084F83C3069E7022067E7022065E7012025
:10188C0063E700BF020010000000FFFF2DE9F043EA
:10189C0089B004460F4690469946129E0023079342
:1018AC00FFF746FA054694F83D00C0B2202804D054
:1018BC000227384609B0BDE8F083009519230122B0
:1018CC0081492046FFF7E1FB002840F0728194F833
:1018DC003C30012B00F06F81012384F83C302368ED
:1018EC001A6812F0010F03D11A6842F001021A6053
:1018FC002268136823F400631360222384F83D30BC
:10190C00402384F83E3000232364109B6362BDF8AF
:10191C0044306385638D23856C4BE362019500969F
:10192C004B46424639462046FFF70AFD074600283B
:10193C0040F04381238D5BB9039323685A6903926A
:10194C009A690392039A1A6842F400721A60EDE0E5
:10195C00012B0FD0022B21D02268136843F4806333
:10196C0013600023069323685A6906929B690693B9
:10197C00069BDBE02268136823F48063136072B665
:10198C000023049323685A6904929A690492049A76
:10199C001A6842F400721A6062B6C7E022681368D3
:1019AC0043F40063136072B60023059323685A69ED
:1019BC0005929A690592059A1A6822F480621A6057
:1019CC0062B6B3E02A4631462046FFF792FD002866
:1019DC0040F0F58023681A69636A1A70636A0133F0
:1019EC006362238D013B2385638D9BB2013B9BB2CC
:1019FC0063859BE000953346002235492046FFF76E
:101A0C0044FB002840F0DF802268136823F48063D5
:101A1C00136072B623681A69636A1A70636A0133B9
:101A2C006362238D013B2385638D9BB2013B9BB28B
:101A3C006385284B1B68DB08274AA2FB03231B0A80
:101A4C0003EB8303C3EBC3030793079B013B079390
:101A5C00079B002B28D023685A6912F0040FF4D08E
:101A6C001A6842F400721A6023681A69636A1A7061
:101A7C00636A01336362238D013B2385638D9BB2C3
:101A8C00013B9BB2638562B623681A69636A1A705C
:101A9C00636A01336362238D013B2385638D9BB2A3
:101AAC00013B9BB2638541E02363202284F83D20F7
:101ABC0084F83E30226C42F02002226462B684F834
:101ACC003C300127F5E600BF020010000000FFFFCC
:101ADC00040001000000002089B5F8142A463146A4
:101AEC002046FFF706FD00286FD123681A69636A48
:101AFC001A70626A531C6362238D013B2385638DCC
:101B0C009BB2013B9BB263852368596911F0040FAA
:101B1C000CD01B695370636A01336362238D013BE4
:101B2C002385638D9BB2013B9BB26385238D002B78
:101B3C0036D0032BD2D8012B3FF444AF022B7FF4C9
:101B4C0059AF00953346002221492046FFF79DFAF4
:101B5C00002836D172B62268136843F40073136000
:101B6C0023681A69636A1A70636A01336362238D8E
:101B7C00013B2385638D9BB2013B9BB2638562B6AF
:101B8C0023681A69636A1A70636A01336362238D6E
:101B9C00013B2385638D9BB2013B9BB26385C5E7FB
:101BAC00202384F83D30002384F83E3084F83C3008
:101BBC007FE602277DE602277BE6012779E60127EF
:101BCC0077E6012775E6012773E6012771E600BF6A
:101BDC000400010082B0084B1B68084AA2FB0323D7
:101BEC005B0A00FB03F3019300BF019B5A1E019299
:101BFC00002BF9D102B0704700000020D34D6210C9
:101C0C00002800F0F18170B582B00446036813F02F
:101C1C00010F2CD0994B5B6803F00C03042B1DD0E7
:101C2C00964B5B6803F00C03082B12D06368B3F57A
:101C3C00803F41D0002B55D103F1804303F5043391
:101C4C001A6822F480321A601A6822F480221A6010
:101C5C0037E08A4B5B6813F4803FE7D0874B1B68F7
:101C6C0013F4003F03D06368002B00F0BF8123689E
:101C7C0013F0020F75D0814B5B6813F00C0F5FD023
:101C8C007E4B5B6803F00C03082B54D02369002BAC
:101C9C0000F08A807A4B01221A60FFF749F805465A
:101CAC00764B1B6813F0020F75D1FFF741F8401B00
:101CBC000228F5D903209EE1704A136843F480335F
:101CCC001360636843B3FFF733F805466B4B1B682F
:101CDC0013F4003FCBD1FFF72BF8401B6428F5D948
:101CEC00032088E1B3F5A02F09D0644B1A6822F4C5
:101CFC0080321A601A6822F480221A60E1E703F13C
:101D0C008043A3F53C331A6842F480221A601A68A7
:101D1C0042F480321A60D4E7FFF70AF80546574BB5
:101D2C001B6813F4003FA2D0FFF702F8401B642895
:101D3C00F5D903205FE1514B5B6813F4803FA5D1CB
:101D4C004E4B1B6813F0020F03D02369012B40F09C
:101D5C004F814A4A136823F0F803616943EAC103CF
:101D6C001360236813F0080F33D0A369002B5CD0E9
:101D7C00434B0122C3F88024FEF7DAFF05463F4BA4
:101D8C005B6A13F0020F21D1FEF7D2FF401B022831
:101D9C00F5D903202FE1394A136823F0F803616960
:101DAC0043EAC1031360DCE7354B00221A60FEF7EF
:101DBC00BFFF0546314B1B6813F0020FD1D0FEF765
:101DCC00B7FF401B0228F5D9032014E10120FFF7CF
:101DDC0001FF236813F0040F00F09680274BDB699A
:101DEC0013F0805F34D1254BDA6942F08052DA610E
:101DFC00DB6903F080530193019B0125214B1B6888
:101E0C0013F4807F26D0E368012B3DD0002B53D1F7
:101E1C0003F1804303F504331A6A22F001021A62BB
:101E2C001A6A22F004021A6233E0154B0022C3F83E
:101E3C008024FEF77DFF0546104B5B6A13F0020F02
:101E4C00C7D0FEF775FF401B0228F5D90320D2E05E
:101E5C000025D3E70B4A136843F480731360FEF735
:101E6C0067FF0646074B1B6813F4807FCBD1FEF748
:101E7C005FFF801B6428F5D90320BCE000100240F2
:101E8C0000004242007000405F4A136A43F00103B5
:101E9C001362E36833B3FEF74BFF06465A4B1B6ADB
:101EAC0013F0020F2FD1FEF743FF801B41F2883352
:101EBC009842F3D903209EE0052B09D0524B1A6AA5
:101ECC0022F001021A621A6A22F004021A62E0E796
:101EDC004D4B1A6A42F004021A621A6A42F001026D
:101EEC001A62D6E7FEF724FF0646474B1B6A13F02F
:101EFC00020F08D0FEF71CFF801B41F2883398427A
:101F0C00F3D9032077E0E5B9E369002B72D03E4AA0
:101F1C00526802F00C02082A56D0022B17D03B4B09
:101F2C0000221A66FEF704FF0446374B1B6813F0B9
:101F3C00007F47D0FEF7FCFE001B0228F5D90320DA
:101F4C0059E0314AD36923F08053D361DCE72F4B3E
:101F5C0000221A66FEF7ECFE05462B4B1B6813F0AD
:101F6C00007F06D0FEF7E4FE401B0228F5D90320C3
:101F7C0041E0236AB3F5803F1AD023494B6823F420
:101F8C007413226A606A024313434B601F4B012295
:101F9C001A66FEF7CDFE04461B4B1B6813F0007F40
:101FAC000ED1FEF7C5FE001B0228F5D9032022E056
:101FBC00154A536823F40033A1680B435360DCE7E4
:101FCC00002018E0002016E0012B16D00E4B5B68A9
:101FDC0003F48031226A914211D103F47013626AC6
:101FEC0093420ED1002006E001207047012002E050
:101FFC00012000E0002002B070BD0120FBE70120B1
:10200C00F9E70120F7E700BF001002400000424250
:10201C000F4B5B6803F00C02082A01D00D48704787
:10202C00C3F383420C49885C13F4803F0BD0084BFC
:10203C005B68C3F34043094AD35C064A02FB00F0D9
:10204C00B0FBF3F07047064B03FB00F0704700BF8A
:10205C000010024000127A00C0340008BC340008A2
:10206C0000093D00002800F0A08070B50D46044624
:10207C00524B1B6803F007038B420BD24F4A136879
:10208C0023F007030B431360136803F007038B4221
:10209C0040F08D80236813F0020F17D013F0040F5B
:1020AC0004D0474A536843F4E0635360236813F049
:1020BC00080F04D0424A536843F460535360404ABB
:1020CC00536823F0F003A1680B435360236813F0AB
:1020DC00010F31D06368012B20D0022B25D0384A58
:1020EC00126812F0020F64D035494A6822F00302DC
:1020FC0013434B60FEF71CFE0646314B5B6803F046
:10210C000C036268B3EB820F16D0FEF711FE801B36
:10211C0041F288339842F0D9032045E0284A1268EE
:10212C0012F4003FE0D101203EE0254A126812F083
:10213C00007FD9D1012037E0204B1B6803F0070347
:10214C00AB420AD91D4A136823F007032B431360D3
:10215C00136803F00703AB422DD1236813F0040F6F
:10216C0006D0174A536823F4E063E1680B435360CD
:10217C00236813F0080F07D0114A536823F46053F7
:10218C00216943EAC1035360FFF742FF0C4B5B68C4
:10219C00C3F303130B4AD35CD8400B4B18600B4BA7
:1021AC001868FEF781FD002070BD012070470120EA
:1021BC00FAE70120F8E70120F6E700BF0020024013
:1021CC0000100240AC340008000000200800002081
:1021DC00014B1868704700BF0000002008B5FFF7DE
:1021EC00F7FF044B5B68C3F30223034AD35CD8406C
:1021FC0008BD00BF00100240A434000808B5FFF76A
:10220C00E7FF044B5B68C3F3C223034AD35CD8409B
:10221C0008BD00BF00100240A434000810B50446ED
:10222C000268136923F44053C1680B43136183683C
:10223C000269134342691A430168CB6823F4B05313
:10224C0023F00C031343CB600268536923F44073EF
:10225C0081690B4353610268134B9A4220D0FFF7FC
:10226C00BDFF024602EB820202EB820263689B0016
:10227C00B2FBF3F20D48A0FB02314909642303FBC6
:10228C0011231B013233A0FB03035B0903F0F002A3
:10229C0002EB011203F00F03216813448B6010BD95
:1022AC00FFF7ACFF0246DDE7003801401F85EB511C
:1022BC002DE9F84305460F4616469946DDF8208071
:1022CC002B681C6837EA04040CBF01240024B442B8
:1022DC002DD1B8F1FF3FF3D0B8F1000F05D0FEF7C8
:1022EC0027FDA0EB09004045EAD92A6802F10C034E
:1022FC0053E8003F23F4D0730C3242E8003100293C
:10230C00F3D12A6802F1140353E8003F23F00103D0
:10231C00143242E800310029F3D1202385F84130F2
:10232C0085F84230002385F84030032000E000207F
:10233C00BDE8F88360B310B5044690F8413013B390
:10234C00242384F841302268D36823F40053D360EB
:10235C002046FFF763FF2268136923F4904313614F
:10236C002268536923F02A0353612268D36843F42B
:10237C000053D36000206064202384F8413084F83B
:10238C004230606310BD80F84030FEF749FCD7E75F
:10239C00012070472DE9F04182B01E4690F8413083
:1023AC00DBB2202B4BD104460D46904600294AD077
:1023BC000AB9012044E000234364212380F8413012
:1023CC00FEF7B6FC0746A4F82480A4F82680A36880
:1023DC00B3F5805F02D04FF000080FE02369FBB12A
:1023EC004FF000080AE038F8023B2268C3F30803F8
:1023FC005360E28C92B2013A92B2E284E38C9BB2CB
:10240C008BB100963B46002280212046FFF750FFFF
:10241C00D8B9002DE7D015F8012B23685A60E8E7EE
:10242C00A8460025EAE700963B46002240212046BC
:10243C00FFF73EFF58B9202384F8413000E002201A
:10244C0002B0BDE8F0810120FAE70320F8E7032091
:10245C00F6E70000FEF7C8FB0B480C490C4A0023BA
:10246C0002E0D458C4500433C4188C42F9D3094A3E
:10247C00094C002301E013600432A242FBD300F0AC
:10248C006DFAFEF7D7FA70470000002068000020B4
:10249C000C3500086800002074020020FEE70000E4
:1024AC00002310B50446C0E90033C0E9043383604F
:1024BC0081814366C2818361194608225C3000F039
:1024CC00F9F90D4B246263620C4BA3620C4BE36273
:1024DC000C4B23630C4B9C4206D003F168029442D4
:1024EC0002D0D0339C4205D104F15800BDE8104015
:1024FC0000F058BA10BD00BF1127000833270008A0
:10250C006B2700088F27000828010020024A034986
:10251C00034800F069B800BF0C00002045320008E9
:10252C001C00002041680C4B10B59942044601D0A8
:10253C0000F082FEA168094B994202D0204600F0BF
:10254C007BFEE168064B994204D02046BDE8104062
:10255C0000F072BE10BD00BF2801002090010020C9
:10256C00F801002010B50B4B0B4C0C4A20461A609E
:10257C0004210022FFF794FF04F1680001220921D5
:10258C00FFF78EFF04F1D0000222BDE810401221AB
:10259C00FFF786BF600200202801002019250008E3
:1025AC00014800F000BA00BF69020020014800F0A9
:1025BC00FBB900BF6902002010B50446FFF7F0FF1D
:1025CC00236A1BB1BDE81040FFF7F0BF044B236238
:1025DC00044B1B68002BF5D1FFF7C4FFF2E700BFDB
:1025EC0031250008600200202DE9F8430746884693
:1025FC0014460026D4E90195B9F1010905D52468E2
:10260C00002CF7D13046BDE8F883AB89012B07D9F4
:10261C00B5F90E30013303D029463846C04706437E
:10262C006835E9E70FB407B5064904AB086853F8F9
:10263C00042B8168019300F0D7FA03B05DF804EB2A
:10264C0004B0704718000020036A70B505460E46AA
:10265C0084680BB9FFF7B0FF636EDB0705D4A38961
:10266C00980502D4A06D00F09EF9A389190702D534
:10267C002369002B35D12146284600F0C5F880B3DC
:10268C004FF0FF35636EDA0705D4A3899B0502D49E
:10269C00A06D00F089F9284670BD002B04DAA26900
:1026AC009A4217DC0A2915D023685A1C226019702B
:1026BC00A36816F8011F013BA3600029EDD1002B84
:1026CC0011DA22460A21284600F05FF80130D7D0F3
:1026DC000A25D7E72246284600F057F80130E7D103
:1026EC00CEE7013EE4E723685A1C22600A221A70E6
:1026FC00EEE70000024B01461868FFF7A5BF00BFCC
:10270C001800002010B50C46B1F90E1000F0FCF8C2
:10271C000028ABBF636DA3891B1823F48053ACBF97
:10272C006365A38110BD2DE9F0411F468B890546D9
:10273C00DB050C46164605D502230022B1F90E1016
:10274C0000F0D0F8A389324623F48053A3812846A5
:10275C003B46B4F90E10BDE8F04100F0E7B810B5F7
:10276C000C46B1F90E1000F0BDF8431CA38915BF3F
:10277C00606523F4805343F48053A38118BFA38175
:10278C0010BDB1F90E1000F09DB8F8B50E46144608
:10279C00054618B1036A0BB9FFF70EFFA369A360D6
:1027AC00A3891A0701D5236943B92146284600F0AD
:1027BC002BF818B14FF0FF373846F8BD2368226963
:1027CC00F6B2981A63693746834205DC21462846DF
:1027DC0000F032FD0028EDD1A368013BA360236813
:1027EC005A1C22601E706269431C9A4204D0A38951
:1027FC00DB07E1D50A2EDFD12146284600F01CFD6F
:10280C000028D9D0D6E7000038B5294B0546186802
:10281C000C4618B1036A0BB9FFF7CEFEB4F90C30B5
:10282C00190722D4DA0607D409222A6043F04003A0
:10283C004FF0FF30A38133E0580712D5616B41B1E3
:10284C0004F14403994202D0284600F0AFF800236B
:10285C006363A38923F02403A381002363602369AA
:10286C002360A38943F00803A38123694BB9A3898F
:10287C0003F42073B3F5007F03D02146284600F003
:10288C0028FDB4F90C3013F001020AD00022A2602A
:10289C0062695242A261226942B913F08000C5D12B
:1028AC0038BD990758BF6269A260F4E70020F7E7CA
:1028BC001800002003460244934200D1704703F8ED
:1028CC00011BF9E738B50023054D044608462B607B
:1028DC00FEF75AF9431C02D12B6803B1236038BDB3
:1028EC006402002038B50446084611460022054D06
:1028FC002A601A46FEF752F9431C02D12B6803B129
:10290C00236038BD6402002038B5044608461146E1
:10291C000022054D2A601A46FEF726F9431C02D107
:10292C002B6803B1236038BD6402002038B504461F
:10293C00084611460022054D2A601A46FEF742F859
:10294C00431C02D12B6803B1236038BD6402002004
:10295C00014B1868704700BF1800002070B50026A6
:10296C000C4D0D4C641BA410A64209D100F02EFD99
:10297C0000260A4D0A4C641BA410A64205D170BD5A
:10298C0055F8043B98470136EEE755F8043B984759
:10299C000136F2E704350008043500080435000858
:1029AC0008350008704770477047000038B5054679
:1029BC00002940D051F8043C0C1F002BB8BFE41880
:1029CC0000F0DEF81C4A136833B9636014602846C3
:1029DC00BDE8384000F0DAB8A34208D920682118C5
:1029EC008B4201BF19685B6809182160EDE71A4634
:1029FC005B680BB1A342FAD911685018A0420BD1F5
:102A0C0020680144501883421160E0D118685B685B
:102A1C00084410605360DAE702D90C232B60D6E728
:102A2C00206821188B4201BF19685B680918216066
:102A3C0063605460CBE738BD7002002070B50F4E58
:102A4C000C463168054611B900F0A2FC30602146F5
:102A5C00284600F09DFC431C03D14FF0FF34204668
:102A6C0070BDC41C24F00304A042F8D0211A2846DF
:102A7C0000F08EFC0130F2D1EFE700BF6C020020B9
:102A8C002DE9F843CD1C25F0030508350C2D38BF76
:102A9C000C25002D064601DBA94204D90C2333601A
:102AAC000020BDE8F883DFF8D48000F069F8D8F88E
:102ABC0000301C4644BB29463046FFF7BFFF431C81
:102ACC00044658D1D8F800402746002F43D1002C9B
:102ADC004BD023683946304604EB030900F058FC10
:102AEC00814542D1216830466D1A2946FFF7A6FF71
:102AFC0001303AD023682B442360D8F800305A6850
:102B0C0062BBC8F800700FE02268521B20D40B2A5D
:102B1C0017D96119A342256018BF5960636808BFB3
:102B2C00C8F8001062514B60304600F02FF804F1E9
:102B3C000B00231D20F00700C21A1CBF1B1AA35048
:102B4C00AFE76268A3420CBFC8F800205A60EBE7FD
:102B5C0023466468AEE73C467F68B6E71A465B6876
:102B6C00A342FBD100235360DEE70C2330463360D5
:102B7C0000F00CF894E70560D6E700BF7002002067
:102B8C000148FFF710BF00BF680200200148FFF7A3
:102B9C000BBF00BF68020020936810B4013B002BF0
:102BAC00936007DA9469A34201DB0A2902D110BCB5
:102BBC00FFF7EBBD1368581C10601970084610BC69
:102BCC007047F8B506460F461446D518AC4201D1ED
:102BDC00002007E03A46304614F8011BFFF7DCFFF3
:102BEC00431CF3D1F8BD00002DE9F04F0D461446FF
:102BFC00984606469DB018B1036A0BB9FFF7DCFC8A
:102C0C006B6ED90705D4AB899A0502D4A86DFFF772
:102C1C00CAFEAB891B0701D52B699BB929463046E7
:102C2C00FFF7F2FD70B16B6EDC0704D54FF0FF308F
:102C3C001DB0BDE8F08FAB899805F7D4A86DFFF7F0
:102C4C00B3FEF3E70023099320238DF829303023BA
:102C5C004FF00109CDF80C80DFF8A8818DF82A30EF
:102C6C0023469A4613F8012B0AB1252AF9D1BAEB5F
:102C7C00040B0BD05B46224629463046FFF7A1FFDA
:102C8C00013000F0A780099A5A4409929AF8003052
:102C9C00002B00F09F8000234FF0FF32CDE905237D
:102CAC000AF1010A049307938DF853301A93544692
:102CBC00052214F8011B534800F07AFB049AD8B98A
:102CCC00D10644BF20238DF85330130744BF2B2368
:102CDC008DF853309AF800302A2B15D0544600202A
:102CEC004FF00A0C079A214611F8013B303B092B97
:102CFC004BD9B0B1079214E0A0EB080309FA03F327
:102D0C001343A2460493D2E7039B191D1B6803913E
:102D1C00002BBBBF5B4242F0020207930793B8BF84
:102D2C00049223782E2B0AD163782A2B32D1039B61
:102D3C0002341A1D1B68039243EAE3730593DFF810
:102D4C00C8A003225046217800F032FB38B1402253
:102D5C00049BA0EB0A00824013430134049314F843
:102D6C00011B062229488DF8281000F021FB0028B1
:102D7C003FD0274B1BBB039B073323F007030833C0
:102D8C000393099B3B4409936AE70C4601200CFB17
:102D9C000232A8E700234FF00A0C194601340593C0
:102DAC00204610F8012B303A092A03D9002BC6D043
:102DBC000591C4E7044601230CFB0121F0E703ABAA
:102DCC0000932A463046134B04A9AFF30080074604
:102DDC00781CD6D16B6ED90705D4AB899A0502D471
:102DEC00A86DFFF7E1FDAB895B063FF51FAF0998B6
:102DFC001EE703AB00932A463046064B04A900F0AD
:102E0C007DF8E4E7D0340008D6340008DA34000842
:102E1C0000000000CF2B00082DE9F047164698461D
:102E2C008A680B6907469342B8BF1346336091F822
:102E3C0043200C46DDF820900AB10133336023683F
:102E4C00990642BF336802333360256815F00605D6
:102E5C0006D104F1190AE36832689B1AAB422BDCE9
:102E6C0094F843302268003B18BF0123920630D4FB
:102E7C004146384604F14302C847013023D0236849
:102E8C00226903F00603042B14BF002533684FF0AE
:102E9C00000608BFE56804F11A0408BFED1A54F8DF
:102EAC00123C08BF25EAE5759342C4BF9B1AED1886
:102EBC00B5421AD1002008E001235246414638465B
:102ECC00C847013003D14FF0FF30BDE8F087013522
:102EDC00C1E73020E11881F843005A1C94F84510E2
:102EEC002244023382F84310C2E7012322464146B2
:102EFC003846C8470130E6D00136D9E72DE9FF47FF
:102F0C000F7E9146782F80460C469A460C9E01F116
:102F1C00430207D8622F0AD8002F00F0D180582F17
:102F2C0000F0B88004F1420684F842703AE0A7F150
:102F3C006303152BF6D801A151F823F0A12F00083B
:102F4C00B52F0008312F0008312F0008312F000851
:102F5C00312F0008B52F0008312F0008312F000841
:102F6C00312F0008312F0008B3300008DF2F000884
:102F7C006D300008312F0008312F0008D5300008C3
:102F8C00312F0008DF2F0008312F0008312F0008E7
:102F9C007530000833681A1D1B68326004F1420654
:102FAC0084F8423001239CE033682068191D31609D
:102FBC00060601D51D6803E04506FBD5B3F90050A4
:102FCC00002D03DA2D236D4284F843300A23584830
:102FDC0011E021683368080653F8045B02D44906F3
:102FEC0048BFADB26F2F336014BF0A23082350487B
:102FFC00002184F843106668002EA66005DB21686A
:10300C002E4321F0040121604BD01646B5FBF3F1A1
:10301C0003FB1157C75D06F8017D2F46BB420D46D9
:10302C00F4D9082B0BD12368DF0708D52369616815
:10303C009942DEBF302306F8013C06F1FF36921BA5
:10304C0022614B4621464046CDF800A003AAFFF76B
:10305C00E3FE01304AD14FF0FF3004B0BDE8F087F9
:10306C00236843F0200323607827324884F84570A6
:10307C00236831681F0651F8045B02D45F0648BF11
:10308C00ADB23160D90744BF43F0200323601DB1BA
:10309C001023ADE72648E9E7236823F020032360DB
:1030AC00F6E71646BDE733682568181D6169306080
:1030BC002E061B6801D5196002E06806FBD5198045
:1030CC00002316462361BCE7336800211A1D3260C9
:1030DC001E686268304600F06BF908B1801B6060B6
:1030EC0063682361002384F84330AAE732464946DB
:1030FC0040462369D0470130ADD023689B0713D4D9
:10310C00E068039B9842B8BF1846A6E701233246F5
:10311C0049464046D04701309DD00135E3680399BC
:10312C005B1AAB42F2DCEBE7002504F11906F5E77C
:10313C00E1340008F2340008B1F90C20F8B5160798
:10314C0005460C4654D44B68002B02DC0B6C002B50
:10315C0048DDE66A002E45D0002312F480522F6819
:10316C00216A2B6030D0626DA389590705D563683D
:10317C00D21A636B0BB1236CD21A00232846E66A71
:10318C00216AB047431CA38906D129681D292BD875
:10319C00284ACA40D60727D5002262602269D90482
:1031AC00226004D5421C01D12B6803B96065616BA8
:1031BC002F60B9B104F14403994202D02846FFF7BD
:1031CC00F5FB002363630DE001232846B04702465C
:1031DC00501CC9D12B68002BC6D01D2B01D0162B2F
:1031EC001DD12F60002021E043F040031BB21AE0F8
:1031FC000F69002FF6D0930718BF00230E6808BF85
:10320C004B69F61B0F608B60002EEBDD33463A46A4
:10321C002846216AD4F828C0E047002807DCB4F916
:10322C000C3043F040034FF0FF30A381F8BD07444E
:10323C00361AE9E70100402038B50B6905460C4603
:10324C0013B90025284638BD18B1036A0BB9FFF72E
:10325C00B3F9B4F90C30002BF3D0626ED00704D460
:10326C00990502D4A06DFFF79EFB28462146FFF777
:10327C0063FF636E0546DA07E4D4A3899B05E1D4AA
:10328C00A06DFFF791FBDDE770B50C46B1F90E10A0
:10329C00154600291E4696B00CDAA389002113F0BE
:1032AC00800F14BF40234FF48063002031602B60EB
:1032BC0016B070BD6A4600F049F80028EDDB0199A4
:1032CC0001F47041A1F50053594259414FF4806308
:1032DC00EBE78B89F7B59D0706460C4607D504F13D
:1032EC004703236023610123636103B0F0BD6A4689
:1032FC0001ABFFF7C9FF009F054639463046FFF783
:10330C00BFFB48B9B4F90C309A05EED423F0030393
:10331C0043F00203A381E2E7A389C4E9040743F065
:10332C008003A381019B20605BB13046B4F90E1081
:10333C0000F01EF828B1A38923F0030343F0010326
:10334C00A381A3891D43A581CFE7000038B50023D5
:10335C00064D0446084611462B60FDF718FC431C2D
:10336C0002D12B6803B1236038BD00BF640200207A
:10337C0038B50023054D044608462B60FDF70CFCC0
:10338C00431C02D12B6803B1236038BD64020020BA
:10339C0038B50023054D044608462B60FDF700FCAC
:1033AC00431C02D12B6803B1236038BD640200209A
:1033BC00034610B5C9B202449342184601D100200D
:1033CC0003E0047801338C42F6D110BDF8B500BF90
:1033DC00F8BC08BC9E467047F8B500BFF8BC08BCEA
:0433EC009E46704742
:1033F0004C534D5F6E6F745F666F756E640D0000A9
:10340000000000004C534D5F666F756E642E2E0DEC
:1034100000000000696E697469616C697A696E67A1
:103420002073697820617869732073656E736F7299
:103430002E2E2E2E0D0000006779726F5F696E6967
:10344000745F6661696C65640D0000006779726F76
:103450005F696E69745F7375636365737366756CBA
:103460000D000000584C5F696E69745F6661696C9D
:1034700065640D00584C5F696E69745F73756363B2
:1034800065737366756C6C0D0000000041636365C5
:103490006C3A20583D256420593D2564205A3D252D
:1034A000640D0A0000000000010203040000000097
:1034B00000000000010203040607080901020000E1
:1034C00002030405060708090A0B0C0D0E0F101065
:1034D000232D302B2000686C4C00656667454647FD
:1034E0000030313233343536373839414243444580
:1034F00046003031323334353637383961626364EF
:0435000065660000FC
:0435040001050008B5
:04350800DD040008D6
:10350C000024F40001000000100000000000000086
:10351C0003000000280100201C0000200000000017
:10352C002801002090010020F8010020000000007C
:10353C00000000000000000000000000000000007F
:10354C00000000000000000000000000000000006F
:10355C00000000000000000000000000000000005F
:08356C00000000000000000057
:04000005080024616A
:00000001FF
